:020000040800F2
:10000000000003202D1E01087D7E0008A97E000847
:10001000B97E0008FD7E0008D97F000800000000BE
:10002000000000000000000000000000E1A6010840
:10003000E97F00080000000041A70108ED7F0008EB
:10004000B51D0108B51D0108017E0008B51D010898
:10005000B51D0108497E0008415700086D5700088A
:1000600099570008C5570008F1570008F17A0008B1
:10007000217B0008517B0008817B0008B17B0008D0
:10008000E17B0008117C0008B51D01083D800008D7
:1000900011800008B51D01085DBB00081D5800084F
:1000A000B51D0108617A0008917A0008C17A00083C
:1000B000317A0008B51D0108B51D0108B51D0108FC
:1000C000B51D0108B51D0108B51D0108B51D0108C4
:1000D0000181000835810008B51D0108B51D010822
:1000E000B9580008997D0008B51D0108B51D010823
:1000F0006580000841800008CD7D000899800008D7
:10010000CD800008B51D0108B51D0108B51D010809
:10011000B51D0108B51D010889800008417C000853
:10012000717C0008A17C0008D17C0008017D0008DA
:0C013000317D0008657D0008B51D010848
:1001400007B501218DF807000DF1070017F053F8EE
:1001500003B05DF804FB0FB407B504A951F8040B14
:10016000019100F0F5FF03B05DF804EB04B07047B7
:1001700000F0FCBF10B5044679F036FB014620467E
:1001800017F039F801210446024817F034F82044EA
:1001900010BD00BF8FB10A0807B50121019001A869
:1001A00017F029F803B05DF804FB07B501210190B1
:1001B00001A817F020F803B05DF804FB0CB407B5F4
:1001C00004AB53F8042B019300F0D0FF03B05DF8AB
:1001D00004EB02B07047000008B5044B1B689B6835
:1001E000834201D117F03EF8002008BD4C030020E7
:1001F0000B4B1B685B68834207B504D04FF0FF30A0
:1002000003B05DF804FB4FF0FF3201210DF1070050
:1002100017F034F80028F1D09DF80700F0E700BF90
:100220004C030020FFF7E4BF024B1B685868FFF740
:10023000DFBF00BF4C03002070B5044619B94FF072
:10024000020C12F01DFC0C4E33685B68934203D025
:1002500000232370204670BD4D1E33685868FFF799
:10026000C7FF002806DD04F8010B0A28F0D0013D85
:10027000F3D1EDE70130F9E74C030020094B13B54A
:100280001B688DF807005B688B42044607D101218B
:100290000DF1070017F023F8204602B010BD4FF013
:1002A000FF34F9E74C03002008B5944612F0E8FB50
:1002B00008B59C4612F0E4FB9A4238BF8854704758
:1002C00070472DE9F84F98460D9B15469A07DDE9D2
:1002D0000B4906460F4623D02A460A9B03EB040A25
:1002E0001444A24220D10D9B9B0705D5A2EB050A21
:1002F000D14505EB0A0420D82046BDE8F88F4346D7
:1003000039462020B0470AF1010ACA450AEB0B0220
:10031000F5D3A9EB04024C4588BF00222A44DCE750
:10032000A246A5EB040BF0E702F1010B1AF8010D50
:1003300043463946B0475A46D3E7434622463946F4
:100340002020B0470AF1010AD2E72DE9F0479E4686
:10035000DDE90D3C1CF0020FDDE90874DDE90B65F9
:100360009DF828801FD10CF001094BB1B9F1000FA5
:1003700006D0B8F1000F02D11CF00C0F00D0013BE9
:100380004FF0300A02E007F804A00134A54201D979
:10039000202CF8D1B9F1000F05D04FF03009A3425D
:1003A00001D9202C1BD11CF0100F15D01CF4806F2C
:1003B00032D1C4B1AC4201D09C422DD1651E12D0C5
:1003C000102E3FD11CF0200FA4F1020456D1782644
:1003D0003E5530267E556C1C202C29D00DE007F8A8
:1003E00004900134DBE7102E10D11CF0200F2FD128
:1003F00078243C7030247C700224B8F1000F31D096
:100400002D253D55013414E06224F2E7022EFBD085
:1004100030243C700124F0E7102E1BD11CF0200F7B
:100420002AD1202C04D0651C78263E55202DD0D111
:100430002024CDE90A3CCDE908747346BDE8F047B5
:10044000FFF73FBF022EC4D162247C550135EDE792
:100450005824CEE7022E03D1202CE9D02546F3E71D
:100460002546E3E71CF0040F01D02B25C9E71CF05B
:10047000080FDED02025C4E7202CD9D0651C5826D3
:10048000D3E72DE9F04391B0189D1A9F1D9E2DB919
:1004900026F0100416F4806F264622D116F0200FA5
:1004A00014BF4FF0410E4FF0610EAC460DF1200825
:1004B0000025AEF10A0EBCFBF7F907FB19C95FFA7C
:1004C00089F4B9F1090F94BF30347444E4B2BC45E7
:1004D00008F8014BBCFBF7F405F1010501D3202D11
:1004E00010D11C9C05941B9C0696CDE903749DF8C5
:1004F0006440CDE9015408AC0094FFF726FF11B029
:10050000BDE8F083A446D6E72DE9F04F95B0DDE9CC
:100510001E76CDE90A2357EA0603CDE90801DDE995
:10052000229B269C05D124F0100314F4806F1C46F6
:1005300037D114F0200F14BF412361230DF1300A8D
:100540000025A3F10A0831464A465B46384677F053
:100550002FF9D2B2092A94BF303242444F45D2B269
:1005600076EB0B060AF8012B05F1010501D3202DCE
:1005700014D1259B0593249B0694CDE903939DF804
:100580008030CDE901530CAB0093DDE90801DDE9D2
:100590000A23FFF7DAFE15B0BDE8F08F07460E46D6
:1005A000D1E70025E5E700002DE9F04F2DED028BA6
:1005B00093B01F46DDE91E530B920E9353EC102BA4
:1005C000CDE90901104619468DED060B209E76F007
:1005D000B1FE80B1DDE90601C34B4FF0FF3276F08A
:1005E000D1FE40B9DDE906014FF0FF326FF4801310
:1005F00076F0AAFE80B10E9B099820969DED060B21
:10060000DDE90A12CDE91E533B4613B0BDEC028B67
:10061000BDE8F04F00F080B9DDE9060100220023BB
:1006200076F092FE002800F03681DDE906A303F1A2
:10063000004B16F480630F93CBF30A53A3F2FF33FE
:1006400007EE903ACBF31302F8EEE77A9FEDA77A24
:100650009FEDA78AA74B42F07F5150464FF0000212
:1006600041F4401108BF0625A7EE878A76F042FACA
:1006700097A3D3E9002376F0F5FB804618EE100A25
:10068000894676F097FB02460B464046494676F08F
:1006900033FA76F097FE07EE900AB8EEE77ADFEDD0
:1006A000967AB6EE008AA7EE278A0446DFED937AA3
:1006B000BDEEC88AF8EEC86A67EEE67ADFED906AAA
:1006C000E7EE267A17EE900A76F074FB02460B46A8
:1006D000CDE90C2376F0C6FBDDE90C238046894684
:1006E0001046194676F008FA864BCDE91001002233
:1006F0004046494676F0E0FC834B002276F0FCF958
:1007000002460B464046494676F0D6FC7F4B002217
:1007100076F0F2F902460B464046494676F0CCFCAC
:10072000DDE90C238046894600204FF0804176F0B9
:10073000E1F902460B464046494676F0DDF90246AD
:100740000B46DDE9100176F0B7FC714B002276F024
:10075000D3F918EE103A03F2FF3C00224FEA0C5393
:1007600076F080FB52465B468046894676F00AFE6C
:10077000002840F09380CDE90C8904F16303C72B76
:1007800034BF4FF004084FF0050831051ED552A3C1
:10079000D3E900235046594676F0EAFD002800F0E0
:1007A00087804FA3D3E900235046594676F0CCFD0D
:1007B00000287DD0A542C8BF2C1B4FF00008CCBF3D
:1007C00004F1FF35002546F4806644460E9B9845AB
:1007D00034BFA3EB08094FF0000916F002030F9392
:1007E00004D0B8F1000F18BF4FF000093CB15046DB
:1007F0005946DDE90C2376F05FFC82468B46DDE945
:1008000006010022002376F09FFD10B10BF100439A
:100810009B4626F40063CDE90193DDE90A124BEC17
:1008200010AB099800953B4600F076F80246B8F107
:10083000000F2AD016F0200F00F101050A99099E39
:100840000CBF652045203B46B0470523059308F1C2
:10085000FF33049300220A23002CCDE902324FEA31
:10086000D473B8BF644201932A463B46DDE90901CF
:100870000094FFF706FE0F9B024633B10B9BC41A90
:100880000B9B1A190E9BA34219D8104613B0BDEC4E
:10089000028BBDE8F08FDDE906ABCAE61A4B0022F9
:1008A0004046494676F008FC013CCDE90C0164E77E
:1008B000002D8BD00F9B002B88D0013D86E70A9935
:1008C000099D3B462020A8470134D9E7AFF30080BB
:1008D00000000060A787D23F000000E0E2361A3F28
:1008E0000000000080842E41FFFFEF7F9B209A3E96
:1008F0004451343E0000F83F789A54401872313F1A
:100900008E5D134000002C40000024400000184081
:100910000000F03F000000002DE9F04F5BEC10AB51
:1009200097B0CDE90501CDE90723504652465B4615
:100930005946DDE92057229E76F0FCFC70B903236E
:10094000CDE902760193B04B0093DDE90501DDE9C5
:100950000723FFF7B6FC17B0BDE8F08F4FF0FF326A
:100960006FF480135046594676F0EEFC28B104230C
:100970000193CDE90276A54BE6E7A54B4FF0FF3298
:100980005046594676F0FEFC68B1A24A06F00403D0
:10099000002B08BF0322A04B1CBF13460422CDE945
:1009A00002760192D0E794A3D3E90023504659463A
:1009B00076F0E8FC38B992A3D3E9002350465946B3
:1009C00076F0C2FC68B1DDE90723DDE905014BECF7
:1009D00010ABCDE92176209517B0BDE8F04FFFF7B9
:1009E000E3BD002200235046594676F0ADFC0028B6
:1009F00000F09A805B4652460020002176F07AF89B
:100A0000012382468B46099316F4806400F08E80A1
:100A1000092D40F28E800EABA5F109020024302191
:100A20000134202C03F8011BA5EB040901D09442EA
:100A3000F6D15946504676F0C5FC784B03EBC90316
:100A400093ED007B05468DED0A7B76F0A1F9024619
:100A50000B465046594676F04DF8DDE90A2376F00C
:100A600001FA02460B46CDE90C2376F0D3FC804612
:100A700076F07EF902460B46DDE90C0176F03AF895
:100A800002460B46CDE90C23654B002276F07AFC3A
:100A9000002851D008F10108404676F069F9024675
:100AA0000B46DDE90A0176F059FC10B101354FF033
:100AB0000008B9F1000F50D1284676F069F90246D6
:100AC0000B465046594676F015F8554B00228046A5
:100AD000894676F039FC30B1514B002240464946F8
:100AE00076F050FC10B1E80700D501350EAB1A19AD
:100AF0000A21202C0AD095FBF1F001FB105530356E
:100B000002F8015B013405460028F2D106F0030229
:100B1000012A56D1002F54D0099A12B916F00C0FA1
:100B200000D0013F302244E009906DE74FF0060904
:100B30007FE7A94600247CE7DDE90C01384B002261
:100B400076F002FC0028B4D1B8F1000F02D018F002
:100B5000010FAED008F10108ABE70EAB23440A2128
:100B6000202C0DD0B8FBF1F001FB10823032B8F12F
:100B7000090F03F8012B09F1FF3904F1010411D821
:100B8000A1440EAA3021202CB0D0A14504F10103CC
:100B90000AD11C4609F158030DEB03092E2309F86D
:100BA000203CA3E78046DBE7A1541C46EBE71A553F
:100BB0000134A74205D9202CF9D1CDE90276019460
:100BC000C2E6202CF9D0099A3AB104F158026A44DD
:100BD0002D2102F8201C0134EFE7710704D504F140
:100BE00058026A442B21F4E73207E6D504F1580293
:100BF0006A442021EDE700BF0000000065CDCD4133
:100C00000000000065CDCDC1B26C0B08B66C0B08BE
:100C1000FFFFEF7FA96C0B08AE6C0B08C06C0B08D4
:100C20000000E03F08B1FFF78BBA70472DE9F04FA5
:100C300091B09B460B1E0A93AC4B1A9E904614BF74
:100C40008146994600249BF8000060B944450A9902
:100C50002CBF08F1FF32224643460020C8472046F9
:100C600011B0BDE8F08F25280BF1010B06D022460C
:100C70000A99651C4346C8472C46E4E700230DE06B
:100C80002D2A2AD0302A06D0303A092A4FF0000700
:100C900011D80A2532E043F001038B46594611F87A
:100CA000012B2B2A1CD0EBD8202A1CD0232A1DD0A4
:100CB0002A2A2BD000279BF800202E2A64D19BF8EB
:100CC0000110A1F1300009280BF1010243F4806307
:100CD00051D800254FF00A0C26E043F00203DCE770
:100CE00043F00403D9E743F00803D6E743F01003C9
:100CF000D3E705FB0722A2F130078B46594611F8CE
:100D0000012BA2F130000928F3D9D4E756F8047B6F
:100D1000002FBCBF43F002037F428B46CBE70CFBA6
:100D20000511A1F130050246104610F8011BA1F192
:100D3000300EBEF1090FF2D9114611F8010B6C28E3
:100D40002CD024D8682830D06A2837D011468B465A
:100D50001BF8010B672875D857284BD8452807D0B2
:100D600085D9462800F03181472880D143F40063BB
:100D700043F020033FE12A2907D156F8045B0BF129
:100D8000020225EAE575D7E75A460025D4E774281C
:100D900001D07A28DAD143F48073D8E750786C28F0
:100DA000F9D143F44073911CD1E75078682802D000
:100DB00043F08003CBE743F0C003F4E743F4007350
:100DC000C5E70A2A00F06281072A7FF450AF43F09A
:100DD000210305930823CDE903531023CDE9011323
:100DE00056F8043B00930A99434622464846FFF7CB
:100DF00048FBFAE0A0F158020F2A3FF638AF01A1F4
:100E000051F822F0750E00086F0C00086F0C0008F6
:100E10006F0C00086F0C00086F0C00086F0C0008C6
:100E20006F0C00086F0C00086F0C0008750E0008AE
:100E300015100008750E0008EF0F0008CF0F00080E
:100E4000EF0F0008A0F16902D2B20F2A3FF60FAFF0
:100E50000121914049F2410C11EA0C01B1D07828EE
:100E600003F4806122D1002900F0908023F00D026C
:100E7000102307E0622803F4806220D142BB23F0F4
:100E80000C02022312F4007100F08380CDE9077296
:100E90000022CDE9043206F1070A2AF0070A069576
:100EA0000292FAE80223CDE900233DE06F2812D137
:100EB00023F00C0209B123F00D020823E2E75828C1
:100EC00016D1002A39D123F00C0242F02002CFE7DC
:100ED00023F00D02D5E7692823F0100230D023F06B
:100EE0001C0209B123F01D020A23CBE7C10200084E
:100EF00042BB23F01002930527D5073626F00706DC
:100F0000B24671685AF8083B0695CDE907720A2681
:100F1000CA0F00270029CDE90467029202DA5B427A
:100F200061EB4101CDE900310A994346224648462A
:100F3000FFF7EAFA0446564685E623F00D02C4E7B9
:100F40000029D8D023F01102D5E7D00506F1040A14
:100F500001D5336802E0510613D533780395CDE906
:100F600004720A220292002B4FEAD3720192B8BF98
:100F70005B4200930A99434622464846FFF781FAAE
:100F8000D8E71306E5D5B6F90030E7E723F00C0201
:100F90006EE7D00506F1040A06D5CDE90472CDE965
:100FA000023501913368E4E7510608D53178CDE97F
:100FB00002350023CDE90472CDE90013DAE7316888
:100FC00012F0800F18BF89B2F1E743F02003CDE99A
:100FD0000173073626F007060095B6EC020B0A9956
:100FE000434622464846FFF797FC04462BE667280F
:100FF00001D143F40063CDE90173073626F00706FB
:101000000095B6EC020B0A99434622464846FFF784
:10101000CBFAEAE713F0020523D04FF0010A631C74
:101020000B930A9916F8040B43462246C8475DB352
:101030000B9A54461EE00A9943462020C8470AEB03
:1010400004020AF1010A5745F5D8002F07F1FF33D2
:1010500008BF002307F1010A1C4408BF4FF0020A31
:10106000DDE7AA46EBE7551C0A9943462020C8470E
:1010700001342A46BC42F6D30B9AA7EB0A03574524
:1010800038BF00231A440B920B9CDCE53246002D3E
:1010900052F8046B0B9214BF29464FF0FF313144D4
:1010A0003246107808B18A4211D1A2EB060A13F435
:1010B00080620C9202D0AA4528BFAA4613F0020310
:1010C0000D931BD1AAEB040322460F9308E00132D3
:1010D000E7E7531C0E930A9943462020C8470E9A0F
:1010E0000F9BD3189F42F4D8A7EB0A03574538BF8C
:1010F00000230AF101021C4403EB020AA31B0E9316
:1011000004E01D460A9943462246C8470E9BF41840
:1011100016F8010B28B10C9B002BF3D06B1E002D91
:10112000EFD10D9B93B12246AAEB040505E0561CB6
:101130000A9943462020C847324653199F42F6D8A1
:10114000A7EB0A03574538BF00231C440B9E7AE5E2
:101150001FB5034600914FF0FF3203A90248FFF785
:1011600065FD05B05DF804FB250C000807B500938C
:1011700013460A4601460348FFF758FD03B05DF8E1
:1011800004FB00BFB902000838B5104B1B780546B8
:101190001BB94FF0020C11F073FC0D4B1C680020C2
:1011A0002CB970B92846BDE8384001F02BB9D4E914
:1011B000011328469847431EDBB2012BF1D924685E
:1011C000EEE7023818BF012038BD00BF80040020C0
:1011D00084040020034B1A781AB903490A600122DB
:1011E0001A70704780040020840400200C4B1B7888
:1011F00010B51BB94FF0020C11F042FC0949086808
:101200000023024622B9002BF4D10B6018B910BD9F
:1012100012680133F6E7046813F0EEF82046F5E7AC
:10122000800400208404002038B50D46044618B917
:101230004FF0020C11F024FC0029F9D0084B1B7868
:10124000002BF5D00C2013F0D5F808B910F02CFDC8
:10125000044B1A680260C0E901541860043038BDBC
:10126000800400208404002038B5034618B94FF0EC
:10127000020C11F005FC0A4D286800220028F6D067
:10128000044654F8041BA34207D122B92960BDE8E3
:10129000384013F0B1B81160F9E702460846EDE7AF
:1012A000840400202DE9F04307468DB016460C4615
:1012B00019B94FF0020C11F0E3FB002AF9D02420F9
:1012C00013F098F822460346306004F1200C1068B1
:1012D00051681D4603C5083262452B46F7D1106898
:1012E000286094F82030002113F00303ADF82A1091
:1012F00026D1A389ADF82A3094F82010331D059328
:101300004FF00A08C1F381030493CDF80C8094F8E0
:101310002330029394F82230019394F82130009303
:1013200004F11002BDF82A30C1F3011138461BF058
:1013300041F868B96568F080A5B90DB0BDE8F083E3
:10134000012BD9D1A368E0680DF12A029847D3E7B1
:10135000009023681B4A1C49022012F081FF0023E1
:10136000F380EAE72B690B900DF12A020BA968695B
:101370009847B31D2A7E08936B7FCDE906832B7FA8
:101380000593EB7E0493AB7E03930B9B02939DF836
:101390002A3001936B7E00938146B1882B463846F4
:1013A0001BF066F830B100902368084A0649022015
:1013B00012F056FFB9F1000FBFD00B9813F01CF8D4
:1013C000BBE700BF106D0B082A6D0B08336D0B08CF
:1013D00013B50C4689881BF0F5F838B123680090E6
:1013E0001B68054A0549022012F03AFF206802B046
:1013F000BDE8104013F000B8586D0B082A6D0B08BB
:101400002DE9F04F814685B014460F4619B94FF0CB
:10141000020C11F035FB0D682B4A2B682B49052077
:1014200012F01EFF00230393ADF80A3095F8203028
:1014300013F0030329D104B9AC68AB890394ADF868
:101440000A300026DFF88CB0DFF880A04FF47A78FD
:10145000039B0093B9889DF80A30002248461BF090
:101460007FF8642804461DD12B685A465146032054
:1014700012F0F6FE012012F011FEB8F10108E7D1DA
:10148000AEB1039812F0B8FF11E0012BD9D1D5E924
:1014900002300DF10A0203A9002C18BF204698471C
:1014A0000646CFE716B1039812F0A6FF34B10094B8
:1014B0002B68074A0549022012F0D2FE201E18BFF1
:1014C000012005B0BDE8F08F756D0B082A6D0B0883
:1014D000B36D0B08866D0B0813B5049C00941AF0CD
:1014E00017FF044628B10346044A0549022012F0BA
:1014F000B7FEB4FA84F0400902B010BDD96D0B08F4
:101500002A6D0B0810B51BF083F8044628B103467A
:10151000044A0549022012F0A3FEB4FA84F04009FF
:1015200010BD00BFF36D0B082A6D0B0810B5044603
:1015300018B94FF0020C11F0A3FA0D49542278F0BB
:1015400029FA10F0CBFA036823638388A38610F08E
:10155000C1FA1522014604F1360078F031F9012371
:10156000237010F06DFA63881843608010BD00BFCF
:10157000206E0B0810B5102012F03CFF074B0360E3
:10158000044600F03BF96060012000F06DF8A060B7
:1015900000F040FAE060204610BD00BF146E0B085A
:1015A00010B5044618B94FF0020C11F069FA026840
:1015B000064B9A42F7D1806800F098F8606800F016
:1015C00077F9E068BDE8104000F0A4BA146E0B088B
:1015D00070B518B10568064CA54203D04FF0020C57
:1015E00011F04EFABDE87040C06800F051BA00BF7B
:1015F000146E0B0808B518B10268064B9A4203D066
:101600004FF0020C11F03CFABDE80840C06800F051
:1016100055BA00BF146E0B0808B518B10268064B26
:101620009A4203D04FF0020C11F02AFABDE80840AC
:10163000C06800F0C3BA00BF146E0B0838B518B10B
:101640000568084CA54203D04FF0020C11F018FABF
:10165000B2F5F37F04D8BDE83840C06800F07ABA2C
:10166000002038BD146E0B0873B50646182012F022
:10167000C1FE012200901849044608231046FFF7D6
:101680002BFF054680B12246144932F8040BFFF7C0
:1016900009FE2246124932F80C0BFFF703FE2675AD
:1016A0003EB9204602B070BD204612F0A5FE2C4681
:1016B000F7E70C4B0C4D1A7812B92A6001221A7008
:1016C000082012F097FE08B910F0EEFA2B680360BC
:1016D00028604460E5E700BFD86E0B08906E0B08E9
:1016E000B46E0B08880400208C04002038B5044632
:1016F00018B94FF0020C11F0C3F9037D5BB1114929
:101700000868002338B1D0E90025A54217D1A3B954
:101710000A6012F071FE214631F8040BFFF758FE03
:10172000214631F80C0BFFF753FE2088FFF7EAFE45
:101730002046BDE8384012F05FBE1A60E9E7034674
:101740001046DFE78C04002007B58DF8071001462E
:1017500018B94FF0020C11F093F931F8040B0DF1A8
:101760000702FFF74DFE03B05DF804FB07B50B461B
:10177000014618B94FF0020C11F082F9002B14BF8A
:10178000032002204FF0430314BF0222032260F320
:10179000051362F3830331F80C0B8DF8043001AAB2
:1017A000FFF72EFE03B05DF804FB0000F8B50B4B0D
:1017B0001B7805460E4613B1094B1C6804B9F8BDE9
:1017C00067681DB129783846FFF7BEFF1EB1317832
:1017D0003846FFF7CBFF2468F0E700BF88040020FD
:1017E0008C04002070B5164605460C4677F0FCFFC9
:1017F000308004B12560002070BD0000F0B52C20C1
:1018000087B012F0F7FD044600203DF057F805467A
:1018100000203DF05BF8064600203DF05FF80746EB
:1018200000203DF05FF82B461C4A00962821CDE9A8
:1018300001701B48FEF7C2FC00203DF073F8194A06
:10184000034604211848FEF7B9FC41F60A030122B9
:10185000ADF8163000940B230DF116011046FFF77A
:101860003BFE054630B9204612F0C6FD2C46204608
:1018700007B0F0BD0D4E251D04F12C072A46314658
:101880002088FFF70FFD2946208800220835FFF742
:10189000B7FDBD4206F12406F0D1E8E7DA6E0B0889
:1018A000900400204E310C08B8040020386F0B085B
:1018B00070B5044618B94FF0020C11F0E1F8051D9F
:1018C00000F12C06294620880835FFF781FDB54236
:1018D000F8D12088FFF716FE2046BDE8704012F0D0
:1018E0008BBD000030B54378FF2B87B005460C4612
:1018F00068D1B0F8033040F60142934265D10B89BC
:10190000B0F80720991C8A4206D13C4A3C49052080
:1019100012F0A6FC012056E001339A4240D1B0F803
:101920000B30384A3649052012F09AFC236B002B05
:10193000F0D0606A4FF0FF3113F05FFC18B14FF048
:10194000020C11F09DF8B5F80B30A28D934205D929
:1019500000922B492C4A032012F082FCB5F80B2090
:10196000A38DADF8142091B28B428CBF5B1ADB1AA9
:10197000A3850D3500238DF80C30049506AA12E9D5
:101980000700D4E90C53A847204A1D490346052007
:1019900012F066FC606A13F05BFC0028BAD0CEE758
:1019A000238C01339A420DD1437B5BB9256B4DB13A
:1019B000CDE90333059302238DF80C3003AA07CA3F
:1019C000636BA847002007B030BD40F61742934232
:1019D000F8D10F4A0A49062012F042FC256B002D6F
:1019E00098D00023CDE90333059301238DF80C3003
:1019F00003AA07CA636BA8478CE700BF0A700B08ED
:101A00001E700B082A700B083C700B088B700B08BB
:101A1000A4700B08F0B53C2085B012F0EBFC044636
:101A200001461848FFF700FC1749A0630C230094F7
:101A300001220220FFF750FD054630B9204612F082
:101A4000DBFC2C46204605B0F0BD104E251D04F1F0
:101A500024072A46314620880835FFF723FCBD427B
:101A600006F12406F5D12146002531F81C0B8DF82E
:101A70000F500DF10F02FFF7C3FC284613F089FB4E
:101A80006062DFE7E5180008A4710B0814710B0809
:101A900007B518B94FF0020C10F0F2FF8162818592
:101AA00009BA01910146C0E90C2331F8140B01AACF
:101AB000FFF7A6FC03B05DF804FB000013B5044675
:101AC00018B94FF0020C10F0DBFF406A0028F8D084
:101AD0004FF0FF3113F091FB0028F2D1A38D73B9C1
:101AE0000A4A0B49052012F0BBFBA36AA3852146D5
:101AF0001ABA019231F8140B01AAFFF781FC606A4F
:101B000013F0A6FB0028DCD102B010BDB1700B08A9
:101B10001E700B0870B5044618B94FF0020C10F097
:101B2000AFFF806BFFF7A0FB251D04F124062946BB
:101B300020880835FFF74CFCB542F8D12088FFF724
:101B4000E1FC606A13F041FB2046BDE8704012F0F2
:101B500053BC0000F0B5B2F5F37F85B006460F46E2
:101B6000154624D814460CB9012021E0F32C224656
:101B7000A5EB040128BFF32288B2A41AD2B2CDE9A2
:101B80000102A4B217FA81F1B4FA84F3039100952B
:101B90005B095B00328A318800201AF05DFD034644
:101BA0000028E0D0034A0449022012F059FB00202B
:101BB00005B0F0BDD3700B081E700B0807B50B46BF
:101BC000014618B94FF0020C10F05AFF31F81C0B07
:101BD0008DF807300DF10702FFF712FC03B05DF836
:101BE00004FB000010B54468B4F80B30B3F5124F95
:101BF00013D1184A1849042012F032FB627B174BAC
:101C000032B91A68022111741B6802221A7210BDBF
:101C1000012A04BF19680A74F6E749F201229342C7
:101C200006D1BDE810400E4A0B49022012F018BB45
:101C300049F202229342EAD1084B1A68D368002B7A
:101C4000E5D0D4F81110D4F80D00926BBDE8104027
:101C500089B21847B4710B08C2710B08C004002088
:101C6000C8710B0810B510B101280FD010BD0A4B78
:101C70001B681C6812F061F94142204613F0BDFA5E
:101C80000028F3D04FF0020C10F0FAFE024B1B6854
:101C9000186813F0DDFAF3E7C004002008B5064B1E
:101CA0001B681BB94FF0020C10F0EAFE0028F9D0B7
:101CB000D860996308BD00BFC004002070B53C2007
:101CC00088B012F097FB1E4D00263246044628606D
:101CD000067201211B4815F06DFD2B686060586885
:101CE00041F2883115F0D6FD19F058FF30462C68C6
:101CF00013F04FFA2B68206018684FF0FF3113F093
:101D00007CFA18B14FF0020C10F0BAFE10F02EFB66
:101D10000D4B009369460D4B0D48019319F06CFE75
:101D20000C4B02930C4B03930C4B049302A840F210
:101D30003C53059319F0FCFF19F02EFF08B070BD5D
:101D4000C0040020E5200008FC030320651C0008F7
:101D5000E51B0008E4010320F0020320080503202E
:101D6000014B186810307047C00400202DE9F04383
:101D70008DB006AC4FF47A714143204602F0D6F99B
:101D8000524D012012F03AF92B681A7A022A60D0DB
:101D900094E8030002F0E6F90028F2D04C4A4D49DD
:101DA000022012F05DFA2B6801221A7200204DE029
:101DB000494B53F82230494A0097CDE90183142159
:101DC00033464846FEF7FAF99DF82A3084F82F305A
:101DD0009DF82B3084F830309DF82C3084F8313069
:101DE0009DF82D3084F832309DF82E3084F8333051
:101DF0009DF82F3084F834302C68364994F834201C
:101E000094F82F30049294F83320039294F83220FF
:101E1000029294F83120019294F83020009204202C
:101E20002F4A12F01DFA627E637C0592A27E049214
:101E3000627D0392227D0292E27C0192A27C00925A
:101E40000420284A234912F00BFA01200DB0BDE806
:101E5000F083197C244A254B0420012918BF13461E
:101E6000234A1C4912F0FCF908A819F083FC2C68DD
:101E70009DF8233023759DF8243063759DF8253037
:101E8000A3759DF82630E3759DF8273023769DF8DD
:101E9000283063769DF829309DF820609DF82170E8
:101EA0009DF8228066745A1ED2B2062AA77484F85E
:101EB0001380A37604F11B097FF67AAF0D4A0E4812
:101EC0000321FEF77BF90C4B75E700BFC00400202F
:101ED00092720B08C2710B0874730B080A720B081C
:101EE00016720B0846720B08E8710B08E4710B08B8
:101EF000EE710B083EF20B08BC04002070B5124DC9
:101F00002B681BB94FF0020C10F0BAFD1E7A022E9E
:101F10000DD110F04FF9044660B90C4A0C49304617
:101F200012F09EF92B6804221A7210F093F9002423
:101F3000204670BD074A0649042012F091F92B682B
:101F400003221A72F4E700BFC0040020A4720B0839
:101F5000C2710B08BF720B0870B5184D2B681BB906
:101F60004FF0020C10F08CFD10F0E6F92B681868A9
:101F700013F02BF92B68002458681C6015F06CFCDA
:101F800040F23C5221460E482E6877F082FB40F228
:101F90000B1221460B4877F07CFB4FF485722146EB
:101FA000094877F076FB4FF485722146074877F0B1
:101FB00070FB304612F020FA2C6070BDC004002087
:101FC00008050320FC030320F0020320E4010320A2
:101FD000044B186820B1007A012894BF002001202A
:101FE000704700BFC0040020034B186818B1007A86
:101FF000C31E584258417047C004002030B5044603
:1020000085B018B94FF0020C10F03AFD254B1A6854
:10201000137C834242D0012B19D102280AD11369C3
:1020200023F07F4323F0FF033BB91F4A1F490320DE
:1020300012F016F9022005B030BD19F039FB034645
:1020400070B31B4A1949204612F00AF9F2E7022B35
:10205000F0D10128EED100230DF10F008DF80F30E3
:1020600019F0EEFA9DF80F30009305460346114A29
:102070000E49052012F0F4F8FF2D0DD10DF10F00DF
:1020800019F0DEFA9DF80F20009203460A4A07492C
:10209000052012F0E5F803242046CCE70120CAE72A
:1020A0000320C8E7C0040020D3720B08C2710B08DC
:1020B000EA720B0818730B0832730B0808B519F095
:1020C00021FBB0FA80F0400908BD0000034B044A30
:1020D000186890420CBF184600207047000003208B
:1020E0000FFD701108B5FFF7F1FF18B1DFF808C058
:1020F00010F0C6FC08BD00BF4E730B082DE9F0437D
:10210000354C364A3649034605468BB0052012F059
:10211000A7F82368032D586D40D115F004FC4FF04B
:10212000A00880272168487F10B11E311AF056FCA4
:102130002668D6F83890484677F056FB0023CDE95C
:10214000053306F109020492327AC0B2CDE90030BB
:10215000CDE9029218464246394619F049FE034637
:1021600020B1204A1E49022012F07AF80021CDE960
:1021700008112268022108AB8DF8201093E80300B3
:1021800082F84650D2E91352A8472368586D4EF69C
:1021900060210BB0BDE8F04315F07CBB15F0C3FB2C
:1021A000236893F84630033B012B04D94FF47A6837
:1021B0004FF4C867B6E719F0FDFD034628B10A4A97
:1021C0000749022012F04CF8F0E7084A04490520BC
:1021D00012F046F8EAE700BFC404002090730B0831
:1021E0009A730B08DD730B08A1730B08C0730B08FF
:1021F0007FB5044618B94FF0020C10F041FCB0F85E
:102200004030B0F84420029207EE903AF8EEE77AB8
:10221000B7EE047A67EE877AB0F842200192FCEEBE
:10222000E77A244917EE902A92B200920420224ABB
:1022300012F016F8E66B94F86230B6F84C2043B30F
:10224000B6F84E50B4F8401094F861008A4294BF3A
:102250000022012218B1A94288BF42F0010212B344
:10226000164A14490133032011F0FAFFB4F8443040
:10227000B6F84C100093B4F84230E0882A461AF0C1
:10228000A7FC40B10E4A0B49022011F0E9FF0023E0
:1022900005E01546D6E794F862300133DBB284F8E6
:1022A000623004B070BD074A0249042011F0D8FF23
:1022B000EDE700BF9A730B08F8730B085B740B080B
:1022C0009F740B08CE740B08F0B53B4C3B4E85B0A9
:1022D00023684FF0FF32D86D0DF1070112F0ACFE0C
:1022E000034628B1364A3749022011F0B9FFEFE71B
:1022F00023684FF0FF31986C12F07FFF18B14FF058
:10230000020C10F0BDFB9DF80750032D52D04DB9C3
:102310000320FFF7F3FE2368986C12F099FF002862
:10232000D6D0ECE7012D01D10420F2E7022DF2D145
:1023300024493246052011F093FF236893F8467034
:10234000012F1DD9052F0AD1D888132119F0B6FE07
:10235000034618B31C4A1B49284611F081FF236825
:10236000586D15F0E0FA19F025FD0346E0B1174A63
:102370001449022011F074FF2368012283F84620DB
:102380000022CDE9022203228DF80820226802AB48
:10239000D2E9135293E80300A847BCE70C4A094965
:1023A000384611F05DFFDAE70A4A0649052011F0C8
:1023B00057FFE1E705B0F0BDC404002083CF0B0850
:1023C00009750B089A730B0825750B08A1730B0888
:1023D00039750B08C0730B0807B501238DF807305A
:1023E000074B1B680022D86D0DF1070112F0E5FDC7
:1023F00018B14FF0020C10F043FB03B05DF804FB82
:10240000C404002070B5AA4D2B6886B004461BB9E1
:102410004FF0020C10F034FB986C4FF0FF3112F0CB
:10242000ECFE06460028F3D163783E2B30D0FF2B1C
:1024300000F0AC80052B78D12B68A188DA88914216
:1024400009D10122D88083F84620A379994A9A4974
:10245000042011F005FF2B68002483F8614083F805
:10246000624040F2345011F037FE2B6893F8603030
:1024700013B10320FFF742FE0122CDE9044404AB6F
:102480008DF810202A6893E80300D2E91342D6E0C1
:10249000E378032B2ED00C2B51D0012B45D1217C7E
:1024A000E27B2B6842EA0122A3F84020A17C627CF7
:1024B000586D42EA0122A3F84220217DE27C42EAE3
:1024C0000122A3F8442015F02EFA2868052380F88D
:1024D00046306379A27943EA0223C380FFF788FE7E
:1024E0002B68DB6B93F82F30FBB1B4F8050019F0C3
:1024F000A1FD1AE0217AE2792B6842EA0122A3F8D1
:102500004020A17A627A42EA0122A3F84220217B8C
:10251000E27A42EA0122A3F844200420674A66498D
:1025200011F09EFE2868FFF763FE2B68986C12F08E
:102530008FFE00287FF46CAF012006B070BD2379B8
:102540009BB15F4A5C49022011F08AFE2B6804AA05
:10255000D8880DF10F011AF091FA034658B1594A83
:102560005549022011F07CFEDFE7574A524904200A
:1025700011F076FEEAE79DF810300093534A9DF87B
:102580000F304D49042011F06BFECEE7B4F8033054
:1025900040F20A4293421FD8B3F5806FC5D3A3F52A
:1025A00080630A2BC1D801A252F823F0F525000858
:1025B0002F27000801260008772600087F2600083C
:1025C000932600082B2500082B250008A7260008C5
:1025D000FD260008AB26000840F60202934200F0F8
:1025E000BD8040F60342934232D0B3F5006F9CD1D8
:1025F000374A41E0374A3049042011F031FE94E770
:1026000008F01DFD344C2B6890FBF4F202FB14041F
:102610002146D88819F0A6FC042009F091FD80B16C
:102620002E4A2549042011F01BFE04238DF810309A
:102630002B680594D3E9134206AB13E90300A047C6
:1026400073E7274A1C492346042011F009FEECE7F2
:10265000B4F80730234A1849042011F001FECDE9EF
:10266000046606228DF81020B4F80720033A04AB64
:10267000ADF8142006E71C4A0F490520BDE71B4AA8
:102680000D49052011F0ECFD2B68012283F8612033
:102690004BE7174A0849052011F0E2FD2B68D8885E
:1026A00019F052FD41E7134AE6E7134AE4E700BF99
:1026B000C40400204B750B089A730B0870750B0847
:1026C00095750B08C5750B08B2750B08E1750B08FD
:1026D00067770B08FE750B083F420F0019760B0851
:1026E0003D760B0860760B0870760B088C760B082D
:1026F000A5760B08C6760B08E1760B08D4F80740E0
:102700001B4A1C492346042011F0AAFD05238DF81D
:1027100010302B680594D3E9134206AB13E903008C
:10272000A0472B680146D88819F032FDFDE6E47910
:102730005CB12346104A0F49022011F091FD2B682D
:102740000521D88819F0BAFCEFE60C4A09490420A3
:1027500011F086FDCDE9044404AB93E6B4F80730EC
:102760000BB9074A88E7012B7FF4DFAE054A83E700
:10277000FE760B089A730B081F770B0856770B0829
:1027800080770B089F770B08F7B5174D2B684FF034
:10279000FF31986C12F031FD044618B14FF0020C75
:1027A00010F06EF92B6893F84670012F14D10226B1
:1027B0000E4A0F4983F84660042011F051FD2B6842
:1027C0008DF80740D86D83F8607022460DF107013F
:1027D00012F0F3FB0028E1D12B68986C12F038FD61
:1027E0000028DBD103B0F0BDC4040020BC770B0887
:1027F0009A730B0873B5164D2B684FF0FF31986C28
:1028000012F0FBFC044618B14FF0020C10F038F93E
:102810002B6893F84630012B12D90E4A0E4904203A
:1028200011F01EFD2B680226D86D83F86040224609
:102830000DF107018DF8076012F0BFFB0028E3D10E
:102840002B68986C12F004FD0028DDD102B070BD39
:10285000C4040020CE770B089A730B082DE9F04FC3
:102860008BB082468B4690461F46FFF7BDFB06465F
:10287000002800F0E9808A4DD5F80090B9F1000FEA
:1028800003D04FF0020C10F0FBF8642011F0B2FD01
:102890004A4604462860C0F83CA04946814814F0E6
:1028A00089FF60652C680AF13603A363BBF1000F52
:1028B000E7D0E26B06213032484619F009FF4EF6A8
:1028C0006E530993784B08AAD3F8803508930621F4
:1028D0002E2019F0FDFE0BF110021021182019F026
:1028E000F7FE5A461021082019F0F2FE19210120A6
:1028F00019F01CFF19F0EEFCA36B03F1010A50461E
:1029000076F072FF231D0193A31CC2B249460093C7
:102910000120234619F04CFB504676F065FF034634
:1029200061882088CDF800A0DBB24A4619F018FE75
:10293000034620B15D4A5E49022011F091FCE36B31
:10294000A1889B8DADF81C3007AB20880093002236
:10295000022319F005FE034620B1564A54490220CD
:1029600011F07EFC0222114600201AF0B7F8E36B4A
:1029700093F82F90B9F1010F6AD1002019F090FA65
:102980000023E26B4FF0000A92F82E00CDF8089079
:10299000082410224946CDE90042CDE903AA0122CC
:1029A00019F0A2FA19F06CFBFEF714FC5046D5F8AA
:1029B000009012F0EEFBD5F800B0C9F848000121F4
:1029C0004FF6FF798BF846108BF860102046ABF875
:1029D000069012F0BAFA2C68374ACBF85C0023460E
:1029E0004FF48061354814F06DF82B68A065986D40
:1029F00014F014F92C68E16B84F861A084F862A0EB
:102A000091F82B509DB14FF0020C152D84F81DC08C
:102A100001F114013FF637AF6B1C2A46A37784F807
:102A20001F9004F12000023576F0B4FF6577012392
:102A30002372E36B1A78012A1ED15B88638140F20E
:102A400003232381C4E9138730460BB0BDE8F08F20
:102A5000B9F1020F06D1012019F022FA33464FF0E6
:102A600001098EE7B9F1000F04D1012019F018FA1D
:102A7000334686E70023F2E7022A0ED1072262726C
:102A800004F10A011A1D143352F8040B41F8040B27
:102A90009A42F9D111232372D4E7DFF824C0F2E679
:102AA000C4040020D92300080070FF1FDF770B0843
:102AB0009A730B0807780B08C922000835780B08B1
:102AC00042780B0810B50C4C206898B1806C4FF020
:102AD000FF3112F092FB18B14FF0020C0FF0D0FF53
:102AE0002368986C93F8464012F0B2FB0028F3D1AB
:102AF000204610BD0446FBE7C404002037B5214C36
:102B00002368002B3CD0986C4FF0FF3112F075FB1E
:102B100018B14FF0020C0FF0B3FF2368032283F8C3
:102B200060008DF80720D86D4FF0FF320DF10701DE
:102B300012F043FA2368986C12F08AFB05460028CD
:102B4000E7D12368986D14F0ECF82368986D13F0C2
:102B500005FF2368986C9D6512F037FB2368D86DDC
:102B60009D6412F011FA2368586DDD6514F074FE4F
:102B700023685D65FEF73AFB206811F03DFC256097
:102B800003B030BDC404002037B56B46002200926C
:102B90005A60C0F108028DF80020084A1268044605
:102BA000D2E9135293E80300A847054A0549234692
:102BB000042003B0BDE8304011F052BBC404002033
:102BC00054780B089A730B08014902481FF024BD82
:102BD000000700206C780B081FB501A809F08EFBD8
:102BE0009DF807309DF80820BDF80A001B0443EA51
:102BF00042539DF8062013439DF8042043EAC22364
:102C00009DF80520A0F2BC7043EA421343EA4060FD
:102C100005B05DF804FB0020704708B50846114672
:102C20001A460AF046F9003818BF012008BD08B559
:102C3000084611461A460AF0F1F8003818BF01207C
:102C400008BD08B50AF0D4F8003818BF012008BD47
:102C500070B58AB00E461546FFF7F3FF10F0010479
:102C600018D1032E18D8DFE806F00D0208106846C8
:102C70000AF056F9039B2B6004E068460AF050F90D
:102C8000049B2B8020460AB070BD68460AF048F9C4
:102C9000049BF0E70324F5E70424F3E7014B1870E5
:102CA000704700BF04070020014B1878704700BF31
:102CB0000407002008B501F0F5F900F083FF00F0EB
:102CC0004DFA01F0DDFF08F07BFA06F069FF0CF029
:102CD000BFFA02F021FF05F057FA09F085FBBDE8C5
:102CE00008400EF047BE08B509F00CF902F01AFFD3
:102CF0000CF0BCFA08F0FEFA01F0CEFF00F060FA2A
:102D0000BDE8084000F06CBF08B505F051FC00F0CC
:102D10003BF800F067FF08F031F90BF039FB09F0E0
:102D20006BF904F0ABFD01F0D5FF08F0FBFA08F0F9
:102D30008FF90CF0A9FA0BF019FE03F051FA0BF021
:102D4000C9FC01F077FB02F0F3FE07F003F805F091
:102D50001BFA00F05BFC05F02BFB0DF0FDFB0EF009
:102D600001FF0CF021FC05F00DFDBDE8084008F066
:102D70000DBC002383F31188021D036883F30888C8
:102D800013689F467047000010B50C2011F032FB0D
:102D9000044B1860044B03600446002012F0F9F95C
:102DA000606010BD080700200000045010B5094CF9
:102DB00023684FF0FF31586812F01FFA18B14FF036
:102DC000020C0FF05DFE07F061F80D2000F038FAFC
:102DD000206810BD0807002008B518B94FF0020C94
:102DE0000FF04EFE0D2000F0BFFB10B10D2000F0E3
:102DF0003FFB094B1A6B22F001021A631A6B42F077
:102E000002021A6307F05CF8044B1B68586812F062
:102E10001FFA0028E2D108BD000001400807002089
:102E20002DE9F04F8DB00E469DF8588015461F468F
:102E3000044610B94FF0020CE5E00129FAD8022A45
:102E4000F8D8082BF6D8B8F1070FF3D80D2000F00A
:102E50008BFB10B10D2000F00BFB734B73491A6B09
:102E6000012E00F0BD8022F004021A6391F8F030C8
:102E70004FF4006203F03F03DFF8AC91A260C9F8A1
:102E80003430D9F830306A4943F00103C9F83030A2
:102E9000D9F8303001AE23F00203C9F830303046A3
:102EA00001F044F9D9F83030190740F1A3800D2022
:102EB00000F0C6F9DFF898915E4B694653F825306B
:102EC0000093484617F0C8FC0028B3D1D9F8083061
:102ED00043F0E073C9F8083003A9CDE90300059079
:102EE000206817F0CBFC01460028A3D1142206A8C5
:102EF00076F0CFFB4FF4805320680B9306A917F0B0
:102F0000D3FC002896D121684B4A0B69082F03EAAD
:102F100002037AD10B61494BDFF838C153F828E03E
:102F200001F1140716204FF007085CF8043B4FEA44
:102F3000D35909F00409C3F3045A57F8092008FAD1
:102F40000AFB22EA0B020EFA0AFA42EA0A0247F8E0
:102F50000920D1F8B020C3F3120322EA0303013899
:102F6000C1F8B030E1D18B6823F0204323F03F0358
:102F70008B608B6823F0104323F03F0343F08053B2
:102F80008B603046142101F0D1F896E8030001F07F
:102F9000E9F80028F9D02368996821F0404121F030
:102FA0003F0141F0004199609A68002AFCDB244906
:102FB00024484A68405D02EB800248689042FCD396
:102FC00001221A609A6822F0004222F03F0242F089
:102FD00001029A601A68D207FCD50DB0BDE8F08FE7
:102FE00042F004021A6391F8303040F6C41203F044
:102FF0003F0341E796E8030001F0B4F800283FF4EE
:1030000051AFDFF854C00FF03BFD43F001030B61FB
:103010000D480E4B0A6953F8273050F8270022F468
:10302000FE720343134375E7000001400075FF1F64
:1030300020A1070048790B08FCFBFFFFE4780B0890
:10304000001000E044790B0804790B0824790B0880
:10305000000304508C780B0880780B0807B5062312
:103060000093022205230021FFF7DAFE03B05DF88A
:1030700004FB000008B518B94FF0020C0FF000FD7A
:103080001529F9D803689A68D007F5D59A68920788
:10309000F2D49A685007EFD40C4A186B52F82120EA
:1030A000120D02F4F86220F4F8610A431A639A6878
:1030B00022F0004222F03F0242F004029A601A68B5
:1030C0005207FCD5186C80B208BD00BF8C780B0885
:1030D0008368594340F6FF73B1FBF3F300EE103AF7
:1030E000B8EEC00A70470000064BB3F8AA304FF4A0
:1030F00061625343B3FBF1F300EE103AB8EEC00A3D
:10310000704700BF0075FF1F0B4A836810B5B2F807
:10311000A840B2F8CA204B4340F6B831B3FBF1F3F4
:1031200064211B1B4B43121B93FBF2F31E3300EE77
:10313000103AB8EEC00A10BD0075FF1F83685943EE
:1031400040F6FF73B1FBF3F107EE901AB8EEE70A11
:10315000F0EE087A20EE270A7047000013B56C469F
:1031600020460FF0C7FD4FF0B043134A996B0A4356
:103170009A63996D114A0A409A65DA6B42F021020E
:10318000DA63DA6D22F02102DA651A6C42F4191260
:1031900042F4C0521A641A6E22F4191222F4C05278
:1031A0001A665A6C42F001025A6494E8030002B0B5
:1031B000BDE810400FF0C8BD0142A085FEBD5F7A9A
:1031C00010B586B004AC20460FF094FD4FF0B0432C
:1031D00018499A6D0A439A659A6D0A400392039AB8
:1031E000996B154A0A409A63DA6D144942F021023C
:1031F000DA65DA6D02F021020292029ADA6B22F0AD
:103200002102DA631A6E0A431A661A6E0A400192A4
:10321000019A1A6C22F4191222F4C0521A645A6CE0
:1032200022F001025A6494E8030006B0BDE81040A1
:103230000FF08ABD0142A085FEBD5F7A00582600CE
:1032400070B52B2888B0054603D94FF0020C0FF05B
:1032500017FC464B53F82040002C00F0858006AE4A
:1032600030460FF047FD052D4FF0B04311D89A6C52
:1032700022439A649A6C22400092009A9A6A22EA47
:1032800004029A6296E8030008B0BDE870400FF0AF
:103290005BBD0E2D0BD8DA6C2243DA64DA6C224067
:1032A0000192019ADA6A22EA0402DA62EAE7162D4A
:1032B0000BD81A6D22431A651A6D22400292029AA7
:1032C0001A6B22EA04021A63DCE71F2D14D89A6DE8
:1032D0002242BAD19A6B02EA040134EA0202B4D162
:1032E0009A6D0A439A659A6D0A400392039A9A6B03
:1032F00022EA01029A63C5E7222D14D8DA6D224230
:10330000A3D1DA6B02EA040134EA02029DD1DA6D3C
:103310000A43DA65DA6D0A400492049ADA6B22EA0B
:103320000102DA63AEE7292D14D81A6E22428CD13D
:103330001B6C34EA030388D14FF0B0431A6E22436A
:103340001A661A6E22400592059A1A6C22EA040245
:103350001A6497E75A6C34EA02027FF476AF5A6C2B
:1033600022F001025A648DE708B070BD687B0B083B
:103370002B2873B5054603D94FF0020C0FF080FBE4
:103380003A4B53F82040002C6DD06E4630460FF07B
:10339000B1FC052D4FF0B0430DD89A6A22439A62D2
:1033A0009A6A22EA04029A6296E8030002B0BDE833
:1033B00070400FF0C9BC0E2D07D8DA6A2243DA62DA
:1033C000DA6A22EA0402DA62EEE7162D07D81A6BEF
:1033D00022431A631A6B22EA04021A63E4E71F2DE0
:1033E00010D89A6B2242C7D19A6D02EA040134EADE
:1033F0000202C1D19A6B0A439A639A6B22EA0102D4
:103400009A63D1E7222D10D8DA6B2242B4D1DA6D5B
:1034100002EA040134EA0202AED1DA6B0A43DA634B
:10342000DA6B22EA0102DA63BEE7292D6FEA0402B1
:103430000FD8196C21429FD11B6E34EA03039BD134
:103440004FF0B043196C21431964196C0A401A6497
:10345000AAE7596C21428FD1596C0C435C64596CBA
:103460000A405A64A0E702B070BD00BF687B0B0839
:103470002B2873B5054603D94FF0020C0FF000FB63
:10348000384B53F82040002C6AD06E4630460FF07F
:1034900031FC052D4FF0B0430DD89A6A22439A6251
:1034A0009A6C22EA04029A6496E8030002B0BDE82E
:1034B00070400FF049BC0E2D07D8DA6A2243DA6259
:1034C000DA6C22EA0402DA64EEE7162D07D81A6BEA
:1034D00022431A631A6D22EA04021A65E4E71F2DDB
:1034E00010D89A6B2242C7D19A6D02EA040134EADD
:1034F0000202C1D19A6B0A439A639A6D22EA0102D1
:103500009A65D1E7222D10D8DA6B2242B4D1DA6D58
:1035100002EA040134EA0202AED1DA6B0A43DA634A
:10352000DA6D22EA0102DA65BEE7292D10D81A6C9D
:103530002242A1D11B6E34EA03039DD14FF0B04368
:103540001A6C22431A641A6E22EA04021A66ABE766
:103550005A6C224290D15A6C42F001025A64A3E79D
:1035600002B070BD687B0B082B2873B5054603D9E4
:103570004FF0020C0FF084FA234B53F82040002C3C
:103580003FD06E4630460FF0B5FB052D4FF0B043EF
:1035900009D89A6A224229D19B6C34EA03030CBFF2
:1035A0000124002423E00E2D04D8DA6A22421DD122
:1035B000DB6CF2E7162D04D81A6B224216D11B6D74
:1035C000EBE71F2D04D89A6B22420FD19B6DE4E7E5
:1035D000222D04D8DA6B224208D1DB6DDDE7292DDC
:1035E0000CD81A6C224201D11B6ED6E7002496E853
:1035F00003000FF0A9FB204602B070BD5B6C2342B4
:10360000CDE70124F7E700BF687B0B0810B5144A2B
:103610001449154C042010F023FE1420FFF710FE6F
:103620001520FFF70DFE1220FFF70AFE1120FFF70D
:1036300007FE0420FFF704FE206838B911F0A9FD49
:10364000206018B94FF0020C0FF01AFA074BD3F8AC
:103650009420074B9A42F5D1BDE81040FEF72EBBEF
:1036600054790B086C790B0864070020001400588B
:103670000004008008B5074B186818B94FF0020C19
:103680000FF0FEF94FF0FF3111F0B7FD0028F5D132
:1036900008BD00BF6407002008B5064B186818B9BC
:1036A0004FF0020C0FF0ECF911F0D2FD0028F7D129
:1036B00008BD00BF64070020014B1879704700BFA8
:1036C00064070020034B1879013801288CBF0020C3
:1036D0000120704764070020024B1879831E58426E
:1036E000584170476407002030B121B10068431A87
:1036F0005842584170470846704700002DE9F04194
:1037000004460D4616461F461BB94FF0020C0FF03B
:10371000B7F90028F9D0002AF7D0DFF87480D8F87C
:103720000030002BF1D1FEF75FFC40B9134A144979
:10373000022010F095FDD8F80000BDE8F081FFF7F9
:10374000C1FF08B90F4AF2E7A3680F482946984716
:10375000069B0D483A463146FFF780F818B9FFF747
:10376000CDF90A4AE3E7FFF7ADFF0028E3D023686D
:1037700028469847C8F80000DDE700BF76790B08B7
:103780006C790B08A6790B080C070020D4790B087C
:103790006007002008B5FFF795F9012894BF0020C5
:1037A000012008BD08B5FFF78DF9012803D1BDE858
:1037B0000840FEF7E9BF08BD08B5FFF7EBFF20B1F1
:1037C000FFF718F8FFF7E6FF00B908BD012010F079
:1037D00015FCF7E707B500218DF807000DF107008C
:1037E000FDF7E4FF03B05DF804FB07B58DF80700B3
:1037F0000DF107010020FDF7D9FF03B05DF804FBD0
:103800000EF020BD08B518B94FF0020C0FF038F9D2
:10381000BDE80840FEF742BA38B5054C054DD4F86E
:10382000A030AB4202D013F094FAF8E738BD00BFE5
:103830000014005800040080024B4FF480621A62AA
:10384000704700BF0014005810B5FFF7E5FF18F0EF
:103850005DFC044628B10346064A0749022010F0E1
:10386000FFFC064B4FF48062201E1A6218BF012035
:1038700010BD00BFE7790B086C790B0800140058E5
:1038800010B5044686B018B94FF0020C0FF0F8F8E6
:10389000FEF79EFBF8B10DF1160300930DF1110236
:1038A00005AB0DF1120104A819F05AF8BDF8163055
:1038B0000393BDF8143002939DF811300193BDF8C5
:1038C0001230009302469DF810300649204612F04F
:1038D000B8FD06B010BD0449204606B0BDE8104052
:1038E00012F0AFBD0E7A0B087D7A0B08FEF770BBA5
:1038F00010B50446002018F019FF20460021BDE84D
:10390000104018F05FBF18F083BF13460A46252108
:1039100019F034B9002219F009B907B500230DF1E7
:103920000600ADF8063019F083F8BDF8060003B0C4
:103930005DF804FB18F0B4BF07B501A818F086FFC6
:1039400030BBBDF804209FED140AD2B19DF80630BB
:103950000B2B16D807EE903AF8EEE77AB1EE087A1C
:10396000A7EE870A1E2A0FDC40F2A11144F2A063E1
:1039700001FB02339B1207EE903AF8EEE77A37EE3E
:10398000800A03B05DF804FB30EE070A5210E9E745
:103990009FED020AF5E700BF0000FEC20000000034
:1039A00007B5002301A8019318F0E6FE019803B0C3
:1039B0005DF804FB18F098BF08B5FEF71FFB01285F
:1039C00003460FD0032807D142F2107010F066FBB7
:1039D000DFF81CC00FF054F80220034A034910F02E
:1039E0003FFC002008BD00BFB37A0B086C790B08C0
:1039F0008B7A0B0810B5FFF73DFE254BD3F89420CA
:103A0000244B9A4203D04FF0020C0FF039F84FF4D8
:103A10007A70FEF7ABF928B91F4A2049022010F04E
:103A20001FFC03E00220FFF7C7FF30B90024FFF7B7
:103A300033FE0EF0A9FD204610BDFEF791F9817A04
:103A400042788378032904D10AB10B2B0DD8144A8C
:103A5000E3E7012905D1002AF9D00B2BF7D902237E
:103A600004E0104B00221A71F1E701230D4A137193
:103A7000FEF744FA04460028D9D10B4A0749022030
:103A800010F0EEFB0EF0E6FBFEF766FACEE700BFA5
:103A90000014005800040080D07A0B086C790B08E1
:103AA00077BD0A0864070020E37A0B0810B5274C9D
:103AB000FFF7E0FD06F0EAF9254A2649042010F058
:103AC000CFFBFFF779FE236853B1234A2149042035
:103AD00010F0C6FB206803685B68984700232360EA
:103AE00018F020FF1D4A1B49042010F0B9FBFFF716
:103AF00005F80EF0AFFB1A4A1649042010F0B0FB8F
:103B0000FEF7DCFA18B94FF0020C0EF0B9FFFEF721
:103B100023FA642010F0C2FA1420FFF7A9FC152044
:103B2000FFF7A6FC1220FFF7A3FC1120FFF7A0FC73
:103B30000420FFF79DFCFFF769FDFFF7ADFDFFF7E0
:103B400059FFBDE8104006F0BBB900BF6007002078
:103B5000FF7A0B086C790B081F7B0B083D7B0B0869
:103B60005B7B0B082DE9F041DDF8188004460D461B
:103B700016461F46FFF79AFFCDF818803B4632469F
:103B800029462046BDE8F041FFF7B8BD0EF0C8BC9D
:103B90000EF030BD0EF008BC0EF056BD0EF038BC75
:103BA0000EF08CBC08B50EF043FD831E5842584100
:103BB00008BD4FF0B042136823F0F00303431360D5
:103BC0007047000008B5044817F034FD034B18682F
:103BD000BDE8084017F00EBD00093D00A00100201F
:103BE000704700004FF0B043934A10B5C3F89C20D3
:103BF000D3F89C2022F47C5242F41852C3F89C2043
:103C00001A6842F480321A601A6842F480721A60AC
:103C10001A689003FCD51A685105F9D59A68874946
:103C200042F400429A601A6842F400221A600A685C
:103C300042F480720A60D3F8902042F01802C3F870
:103C40009020D3F8902042F00102C3F89020D3F8DE
:103C5000942042F00102C3F894204FF0B043D3F80F
:103C600090209207FBD5D3F894209407F7D5744A97
:103C7000D2F8801041F48021C2F88010116841F41C
:103C8000802111609A696F4942F400729A61D3F8F9
:103C9000942010015EBFD3F8902042F02002C3F8B8
:103CA00090204FF0B043DA681140674A0A43DA6067
:103CB0001A6842F080721A60DA6842F08052DA6064
:103CC0001A689101FCD5DA6822F0730242F01302FF
:103CD000DA601A6922F0606222F4FE4242F0007259
:103CE00042F4C0621A61DA6822F0730242F01302F1
:103CF000DA601A6922F0604222F4FE4242F0005279
:103D000042F4C0621A611A6842F080621A601A694D
:103D100042F080721A611A6942F080521A614FF0C3
:103D2000B0431A681201FCD59A6822F0F0029A603A
:103D3000D3F8082122F0F00242F08002C3F80821F3
:103D4000424A136823F0070343F003031360136828
:103D500003F00703032BFAD14FF0B0439A6842F007
:103D600003029A609A6802F00C020C2AFAD1D3F886
:103D7000082122F00F02C3F808219A6822F4E062B9
:103D80009A609A6822F460529A601A6822F00102DE
:103D90001A604FF0B0431C6814F00204FBD12C48A9
:103DA00017F048FC2B4B186817F024FC4FF0E0226A
:103DB0002949136943F002031361CB68C3F302235B
:103DC000C3F10702042A03F1040028BF04220628D5
:103DD00088BFDC1E4FF0FF339340DB43A3401B0141
:103DE000DBB281F823304FF0B043BDE81040D3F888
:103DF00088201A4922F0406242F08062C3F888208D
:103E00005A6A22F003025A625A6A22F0300242F0E1
:103E100010025A62D3F8942022F4404242F48042C5
:103E2000C3F89420D3F8882042F04052C3F8882089
:103E300004200B4A10F014BAFECAFECA000400584F
:103E4000000800588C80FF1F130800200040005815
:103E50000090D003A001002000ED00E0207C0B08C2
:103E6000187C0B0808B54FF0B0431A6842F4807212
:103E70001A601A685005FCD59A6822F0030242F0D5
:103E800001029A605B6A99070FD14FF0B0429368C4
:103E900003F00C03042BFAD1064B1A6822F0070238
:103EA0001A601A685207FCD108BD4FF0020C0EF0E0
:103EB000E7FD00BF004000584FF0B0431A6842F4DD
:103EC00080321A601A689203FCD50D4A136823F0F9
:103ED000070343F001031360136803F00703012B8A
:103EE000FAD14FF0B042936823F0030343F002038A
:103EF0009360936803F00C03082BFAD1704700BF5E
:103F0000004000584FF0B04310B59A6802F00C0220
:103F1000082A03D04FF0020C0EF0B2FD1A6842F0EE
:103F200080721A601A6842F080621A601A68920100
:103F3000FCD54FF0B04423681B01FCD5002017F0DE
:103F40000AFCA36803F00C030C2B0ED1084817F0F1
:103F500071FB084B4FF47A721B68B3FBF2F34FF01E
:103F6000E022013B5361012010BD0020FCE700BFAF
:103F70000090D003A001002010B54FF0B044A3681A
:103F800003F00C030C2B03D04FF0020C0EF078FD65
:103F9000236843F48033236023689B03FCD501200E
:103FA00017F0D9FBA36803F00C03082B0ED10848C7
:103FB00017F040FB074B4FF47A721B68B3FBF2F328
:103FC0004FF0E022013B5361012010BD0020FCE7CF
:103FD0000048E801A00100204FF0E022136923F01F
:103FE0000103136170474FF0E022136943F00103AE
:103FF0001361704710B54FF0B0430C4638B999685B
:1040000021F0FE41214341F00061996010BD01287B
:1040100006D1996821F0FE41214341F08071F4E717
:104020001A6842F001021A601A689207FCD5023839
:104030000B280AD8DFE800F006121416181A1C1E06
:10404000202224260020FFF7B4FD4FF0B0439968EA
:1040500021F0FE41214341F00071D6E71020F2E744
:104060002020F0E73020EEE74020ECE75020EAE7A0
:104070006020E8E77020E6E78020E4E79020E2E7B0
:10408000A020E0E7B020DEE74FF0B0439A6822F0CE
:10409000FE429A601A6822F001021A601A689207BA
:1040A000FCD470470A4AD2F8FC3043F0807343F4E2
:1040B0008033C2F8FC30074B1A6842F001021A60E4
:1040C00000225A60044A136843F4807313607047F7
:1040D00000ED00E0001000E0004000580B4B0C4ADF
:1040E0001B68B3FBF2F34FF0FF32B2FBF3F28242F4
:1040F00010B503D84FF0020C0EF0C2FC05494C6815
:1041000043434A68121B9A42FBD310BDA001002012
:1041100040420F00001000E0024B1868024BB0FB59
:10412000F3F07047A001002040420F000A4B10B589
:104130001B680A4CB3FBF4F34FF0FF34B4FBF3F409
:104140008C4203D84FF0020C0EF09AFC044C4B4307
:1041500064680460436010BDA001002040420F006D
:10416000001000E082B002AB03E90300044B5B687F
:104170001B1A8B42084634BF0020012002B0704752
:10418000001000E082B002AB03E903000146019A8F
:10419000034843685B1A9342FBD302B0704700BFE9
:1041A000001000E038B59DF8104041EA84210D4C24
:1041B000032813D8DFE800F002060A0E22626362C9
:1041C000A16238BD22636363A163FAE7226463647A
:1041D000A164F6E722656365A165F2E7DFF808C030
:1041E0000EF04EFC001000E02D7C0B0808B50022FC
:1041F0000D4B032813D8DFE800F002060A0E1A62FE
:104200005A629A6208BD1A635A639A63FAE71A649B
:104210005A649A64F6E71A655A659A65F2E7DFF818
:104220000CC00EF02DFC00BF001000E02D7C0B0830
:1042300008B54FF0020C0EF023FC0000254B70B5C2
:10424000044618680D46164618B94FF0020C0EF0D9
:1042500017FC4FF0FF3110F0D0FF08B1FFF7E8FF77
:104260000E20FEF7EDFF1C4B1A6822F001021A60C7
:10427000186820F4A02020F06600304340F480202D
:104280001860BCB1226812BADA63626812BA9A6323
:10429000A26812BA5A63E26812BA1A63226912BAA1
:1042A000DA61626912BA9A61A26912BA5A61E26964
:1042B00012BA1A612B681ABA074BDA626A6812BA24
:1042C0009A62AA6812BA5A62EA6812BA1A6201209D
:1042D00070BD00BF700700200000065073B56D462A
:1042E00009490A4E2846FFF721FF746814F00104BB
:1042F00002D0012002B070BD95E80300FFF732FF45
:104300000028F2D02046F5E740420F00000006509A
:1043100008B5FFF7E3FF20B1024A136843F08003BA
:10432000136008BD0000065030B585B004460D4648
:1043300010220021684675F0ACF92A4621466846ED
:1043400075F028FB009B1ABA074B9A60019A12BAC3
:104350009A60029A12BA9A60039A12BA9A6005B0E9
:10436000BDE83040FFF7D4BF000006507FB51546CA
:104370000023144A0E461946DCB2A54284BF50F809
:104380002340946003F1010398BF9160042BF3D1A3
:10439000FFF7A4FF044688B10A4B1A6842F0800276
:1043A0001A60DA680092DA680192DA680292DB68D1
:1043B0000393AA006946304675F0ECFA204604B033
:1043C00070BD00BF000006507FB5044615460E467E
:1043D00010220021684675F05CF921462A4668469D
:1043E00075F0D8FA009B1BBA0093019B1BBA01938E
:1043F000029B1BBA0293039B04221BBA69466846C0
:104400000393FFF7B3FF044680B1009B1BBA0093F0
:10441000019B1BBA0193029B1BBA0293039B2A4682
:104420001BBA69463046039375F0B4FA204604B0CF
:1044300070BD000008B5002010F0ABFE044B054A2B
:1044400018600549BDE8084004200FF009BF00BF0F
:1044500070070020187C0B083F7C0B08F0B50E4657
:104460008DB0074610B94FF0020C15E00029FAD0C4
:104470001F4D4FF0FF31286810F0BFFE04460028A2
:10448000F1D1FFF733FA28B33B783BB1012B06D0CB
:10449000022B21D0DFF85CC00EF0F2FA0223224694
:1044A0008DF800307B78D3B91032102379688DF8FD
:1044B00001300DF1020075F06DFA3146684617F0D3
:1044C000D1F80446286810F0C3FE0028CBD1B4FA16
:1044D00084F040090DB0F0BD03230C22E0E7012B6E
:1044E00002D120322023E1E7DFF80CC0D4E700BF7F
:1044F000700700204D7C0B08607C0B08431E632B6B
:104500002DE9F04107460D4603D94FF0020C0EF09D
:10451000B7FADFF88C80D8F800000028F5D04FF00B
:10452000FF3110F06AFE04460028EED10E20FEF79F
:1045300087FEFFF79FF8FFF7D9F9064630B3164B11
:104540001C70164C236823F001032360236823F4B6
:10455000A02323F0660343F4802343F02003236069
:104560002B68E3626B68A362AB686362EB682362EB
:10457000384617F08EF850B12368D8F8000023F0C1
:104580000103236010F064FE0028BED10026FFF76F
:1045900083F83046BDE8F0816C070020000006502B
:1045A0007007002038B50546FFF764F8FFF79EF95D
:1045B0000446A8B10C4A136823F00103136028468F
:1045C00017F083F804460E20FEF752FF074B1868D9
:1045D00010F03EFE08B1FFF72BFEB4FA84F4640934
:1045E000FFF75AF8204638BD00000650700700203B
:1045F000204B70B5044618680D4618B94FF0020CF0
:104600000EF03EFA4FF0FF3110F0F7FD064600289D
:10461000F4D10E20FEF714FE174B1E70174B1A68CC
:1046200022F001021A601A6822F4A02222F0660227
:1046300042F4802242F020021A607CB12268DA63E0
:1046400062689A63A2685A63E2681A632269DA614F
:1046500062699A61A2695A61E2691A61074B2A6824
:10466000DA626A689A62AA685A62EA681A62012083
:1046700070BD00BF700700206C07002000000650CE
:10468000084A08B5136823F0010313600E20FEF7F3
:10469000EFFE054B186810F0DBFD08B1FFF7C8FD11
:1046A000012008BD0000065070070020F8B5164B29
:1046B00015461A6842F001021A601A68002422F0B6
:1046C000180206460F461A602046AC4205D30E4A31
:1046D000136823F001031360F8BD2B1B102B28BFB8
:1046E0001023C3F38702531E032B06EB040007EBD2
:1046F000040103D94FF0020C0EF0C2F9FFF736FEA9
:104700000028E4D01034E0E7000006502DE9F04F17
:104710000E4685B0074618B94FF0020C0EF0B0F9FE
:104720000029F9D04FF0000ADFF870B04FF001080F
:1047300054465546174B5FFA88F903EB0A01484681
:10474000FFF7DCFEB0B1144B01351022694603EBD4
:104750000A00EDB2FFF7AAFF48B110220BEB0A01E5
:10476000684674F081FD002808BF0134E4B2484671
:10477000FFF718FF0AF1100ABAF1A00F08F10108BB
:10478000D8D1A4F10A03584258413D70347005B0A5
:10479000BDE8F08FE77D0B08477D0B08A77C0B0871
:1047A0002DE9F04192B0002506460DF10E010DF104
:1047B0000D00CDE90655CDE908558DF80D508DF861
:1047C0000E50FFF7A3FF0A2E9DF80D3007D8B34215
:1047D00034BF00250125284612B0BDE8F081092B21
:1047E000F9D9344606A92046FFF788FE0546B0B140
:1047F0002046FFF7D7FEA642EDD00134E4B2174AB7
:1048000017490096234604200FF02AFD40F20118B4
:104810000AAFB4428DF80F4006D90125DBE7013C11
:10482000E4B20A2CDED1E8E720213846ADF810804A
:10483000059706F0CDFB0DF10F0104A8FFF70EFE62
:104840009DF80F30054628B9064A054902200FF0A9
:1048500007FDC0E70133DCB2DBE700BF737C0B0868
:104860003F7C0B088A7C0B082DE9F041DFF894802F
:1048700098F8003006460F461546A3B9204C236829
:1048800023F0180343F008032360236843F0010377
:104890002360FFF723FDD0B1236843F0800323603A
:1048A000012388F80030164A136823F0180343F0F8
:1048B000100313601368002443F0010313602046C3
:1048C000AC4206D30E4A136823F001031360BDE81F
:1048D000F0812B1B102B28BF1023C3F38702531E1C
:1048E000032B06EB040007EB040103D94FF0020C85
:1048F0000EF0C6F8FFF73AFD0028E3D01034DFE7EA
:10490000000006506C0700202DE9F043844685B076
:104910000868DDF830800D4649686C4603C4A86815
:10492000206016461F4640224FF08073694660465D
:104930000393FFF783FC054628B9FFF7A1FE28463D
:1049400005B0BDE8F083174B1A6842F001021A6007
:104950001A6822F0180208F00F091A60002428F0E3
:104960000F0844450ED3B9F1000F05D04A46391956
:104970003019FFF729FD58B10A4A136823F00103E3
:104980001360DAE7102239193019FFF71DFD30B92D
:10499000044A136823F0010313600025CDE71034A7
:1049A000DFE700BF000006502DE9F04F844689B0D4
:1049B0000868129F149E9DF858A00C4649681D4631
:1049C0006B4603C3A068186091464FF000736022E5
:1049D000694660460393FFF731FC30B9FFF750FE9C
:1049E0000024204609B0BDE8F08F4C4C236823F426
:1049F000C0432360236823F01803BAF1000F01D0ED
:104A000043F010032360236843F001032360FFF7A2
:104A10007FFC002846D0002D49D1404A136823F47A
:104A2000C04343F480431360136843F001031360F1
:104A300006F00F09002426F00F0B5C4561D3B9F195
:104A4000000F13D0BAF1000F08D134490B68C9F137
:104A5000100223F4700343EA02530B60139B4A468F
:104A600019193819FFF7B0FC002842D02B4F1599BF
:104A70003B68102243F4C043ED00F6003B602DBAC2
:104A8000002336BA0DEB02000493069305950796B2
:104A9000FFF79AFC044600283DD13B6823F0010350
:104AA0003B609BE7236823F00103236096E72368BC
:104AB00023F4C04343F400532360236843F001030D
:104AC000236005F00F0B002425F00F0844450AD39E
:104AD000BBF1000FA1D0594609EB0400FFF724FCFD
:104AE00000289AD105E0102109EB0400FFF71CFC17
:104AF00028B90A4A136823F0010313606EE71034E3
:104B0000E4E7139B102219193819FFF75DFC002800
:104B1000EFD0103491E7FFF7B3FD62E700000650D5
:104B20002DE9F04186B0DDE90D780F9E0C9D0095D2
:104B30000024CDE90364CDE90178FFF735FF054690
:104B400068B901464246384674F0A3FD1022294652
:104B5000304674F09EFD012006B0BDE8F08120468D
:104B6000FAE72DE9F0438BB0DDE91379129C019748
:104B70004FF0010806ADCDE90295CDF81080009404
:104B8000159EFFF711FF014638B94A46384674F0C2
:104B900080FD40460BB0BDE8F083731E00200F3649
:104BA00013F8011F15F8012BB34282EA010240EA13
:104BB0000200F5D10028EDD04A460021384674F0B5
:104BC00068FD0220E6E70000124B5A6842F001023D
:104BD00013B55A605A68104842F002025A605A6887
:104BE00042F004025A600D4AD2F8903043F4803308
:104BF000C2F890300024032319460094012200F0EB
:104C0000E3F80748009423460222032100F0DCF871
:104C100002B010BD002004E0908C0B080008005882
:104C2000888C0B0808B50F4B0F485A6822F0010218
:104C30005A605A6822F002025A605A6822F004024E
:104C40005A600A4AD2F8903023F48033C2F8903088
:104C5000052100F024FCBDE808400548052100F0CE
:104C60001EBC00BF002004E0908C0B080008005818
:104C7000888C0B08014B1878704700BF7407002020
:104C800008B50120FEF7DCFA0220FEF7D9FABDE8EC
:104C900008400320FEF7D4BA08B50120FEF7E8FB70
:104CA0000220FEF7E5FBBDE808400320FEF7E0BB6D
:104CB0004FF480507047000000487047F8600D08BE
:104CC000034BD3F88000C0B200F5004000037047EA
:104CD0000040005838B5074C23694CF2FA352B4296
:104CE00006D02369044A054903200FF0B9FA25616B
:104CF00038BD00BF00400058877E0B08A77E0B0818
:104D0000034BDB6898430CBF01200020704700BFB5
:104D1000000800588388D8070DD40120102800D13E
:104D2000704743FA00F1C90700F1010201D5C0B292
:104D300070471046F2E70020704730B591FAA1F3B2
:104D400091FAA1F1B3FA83F304685B000325B1FA89
:104D500081F105FA03F3490024EA03038A401A4368
:104D6000026030BD30B591FAA1F391FAA1F1B3FA26
:104D700083F384685B000325B1FA81F105FA03F33C
:104D8000490024EA03038A401A43826030BD30B5EB
:104D900091FAA1F391FAA1F1B3FA83F3C4685B002D
:104DA0000325B1FA81F105FA03F3490024EA03036C
:104DB0008A401A43C26030BD08B5DFF808C00DF064
:104DC0005FFE00BFB47E0B082DE9F04F85B0924620
:104DD0009DF8382000920268B2F1904F80468946D3
:104DE00050D08E498A4211D001F580618A4240D06C
:104DF00001F580618A422AD001F580618A422FD074
:104E000001F540618A420CD0FFF7D6FF8488012C5F
:104E100000F08C80B4F5807F40F02F82804E012717
:104E200082E08488012C4FF0070735D14FF47025BC
:104E30007C4E019302A80DF05DFF019B032B00F255
:104E4000CA80DFE813F0C100E400E600E8008488CF
:104E5000012C4FF003071FD14FF47025724EE8E785
:104E60008488012C4FF0040716D14FF470256F4E43
:104E7000DFE78488012C4FF002070DD16C4E4FF410
:104E80007025D6E78488012C53D0B4F5807F40F09C
:104E90003F82684E002747E0B4F5807F66493FD0E7
:104EA00018D8102C00F0A5820AD8042C00F0A78294
:104EB000082C00F0A782022CA6D14FF4700599E2CD
:104EC000402C00F0A682802C00F09F82202C9BD1E9
:104ED0005A4D8FE2B4F5805F00F0AF820FD8B4F581
:104EE000806F00F09E82B4F5006F00F09682B4F5FA
:104EF000007F89D18A4240F06E824D4EF4E1B4F5D4
:104F0000804F00F09682B4F5004F00F08E82B4F529
:104F1000005F7FF479AF8A4240F06382444EF5E14E
:104F20008A4240F04582424E454D82E73C4E27463C
:104F3000A5E7404E0027A2E7394E0127414D78E70B
:104F4000374E01274FF0706573E7354E01274FF05C
:104F500070456EE7324E01273B4D6AE7304E012720
:104F60003A4D66E72E4E0127394D62E72C4E012758
:104F7000384D5EE72A4E0127374D5AE7284E012764
:104F8000364D56E7264E0127354D52E7294E00276C
:104F9000D4E7284E0027D5E7264E0027D7E7254E31
:104FA0000027D9E7234E0027DAE7224E0027DBE768
:104FB000204E0027DCE71F4E0027DDE71D4E0027AF
:104FC000DEE71C4E0027DFE70022B8F80410D8F80F
:104FD0000000FFF7C7FEBAF1010F6FEA040B41D0E2
:104FE000BAF1020F7FD0BAF1000F40F08A8052462A
:104FF000B8F80410D8F80000FFF7C9FE326802EADA
:105000000B023260726802EA0B02726038E0012221
:10501000DBE70222D9E70322D7E700BF00040048FC
:105020002804005858040058380400584004005818
:105030003004005820040058000800480100F00027
:1050400002000F0001000F000100000F010000F03E
:1050500003000F000200000F020000F00300000F29
:10506000030000F05246B8F80410D8F80000FFF72B
:105070008EFE72680BEA020272603268224332606E
:10508000B9F1050F05F0030AD8F80060B8F804106C
:105090004FEA154573D94FEA8A0A0AF1804A0AF5A0
:1050A000803A00223046FFF748FE95FAA5F3DAF879
:1050B0000820B3FA83F303F00F0322EA050207FA8C
:1050C00003F31343B9F1060FCAF808301DD1B04AF3
:1050D00013682343136002AB93E8030005B0BDE8F7
:1050E000F04F0DF031BE5246B8F80410D8F8000069
:1050F000FFF74DFE32680BEA02023260726822430B
:1051000083E7DFF8A8C20DF0BBFCB9F1080F07D1A7
:105110009F4B1A6822431A605A6822435A60DAE7A2
:10512000A9F10703012B04D8994A5368234353601C
:10513000D1E7B9F1090F09D1954BD3F88420224367
:10514000C3F884201A6822431A60C4E7B9F10B0F30
:105150000FD18F4BD3F884202243C3F884201A68E0
:1051600022431A608A4BD3F884202243C3F8842058
:10517000D2E7A9F10A09B9F1010FACD8F2E7854AE3
:105180000AF1020A52F82A202A4095FAA5F5B5FA42
:1051900085F505F00F05EA40BA4214D17C4AD2F8F1
:1051A000800034EA00000ED1D2F8800000EA0B0043
:1051B000C2F88000D460106800EA0B0010605368E9
:1051C00003EA0B035360A9F10303012B1BD84046EC
:1051D0000191FFF79FFD072801991ED891FAA1F3CD
:1051E000B3FA83F3326A0F209B0000FA03F322EA3A
:1051F0000302009891FAA1F3B3FA83F39B0098405D
:1052000003461343336209F1FF39B9F1040F1BD888
:10521000DFE809F01F2B252E31000B0A93FAA3F2C9
:10522000B2FA82F2706A93FAA3F392000F2404FA9E
:1052300002F220EA0202B3FA83F300989B0098403E
:10524000034613437362DEE700223046FFF775FD25
:1052500041E7736823EA010373600122F5E773688D
:1052600023EA010373600222EFE773680B43F3E75D
:1052700073680B43F6E70322E7E720D8102C3FF4CE
:105280005BAE0ED8042C3FF45BAE082C3FF45DAE51
:10529000022C7FF4B9AD404E012702244FF4700573
:1052A000C7E5402C3FF456AE802C3FF457AE202C7F
:1052B0007FF4AAAD384E01272024384DB9E5B4F566
:1052C000805F3FF44FAE11D8B4F5806F3FF44EAE1F
:1052D000B4F5006F3FF44EAEB4F5007F7FF494ADAB
:1052E0002D4E01274FF400742D4DA2E5B4F5804FEB
:1052F0003FF444AEB4F5004F3FF444AEB4F5005F64
:105300007FF482AD244E01274FF40054254D90E5E3
:105310001BD8102C3FF43AAE0BD8042C3FF439AE16
:10532000082C3FF439AE022C7FF46EAD1E4E0027E0
:10533000B4E7402C3FF433AE802C3FF433AE202C46
:105340007FF462AD184E0027B7E7B4F5805F3FF4F5
:105350002CAE0ED8B4F5806F3FF42AAEB4F5006FD2
:105360003FF429AEB4F5007F7FF44EAD0E4E00271A
:10537000BAE7B4F5804F3FF421AEB4F5004F3FF4E7
:1053800020AEB4F5005F7FF43FAD074E0027BDE7C8
:105390000008005800000140280400580100F000F7
:1053A0000200F0000300F00020040058C57E0B0846
:1053B000244D25498A423FF451AD24498A423FF4A5
:1053C00056AD01F540618A423FF432AD1CE5204DF7
:1053D000EFE7204DEDE7204DEBE7204DE9E7204DCD
:1053E000E7E7204DE5E7204DE3E7204DE1E7204DDD
:1053F000DFE7204D20498A42DBD1204E19E54FF0EE
:105400007065F7E74FF07045F4E78A42DFD11B4E35
:10541000A6E58A42DDD1194E9EE58A42DDD1174EBE
:10542000AAE58A42DBD1154EA2E58A42DBD1134EB2
:10543000AAE58A42D9D1114EA2E58A42D7D10F4EB0
:1054400092E500BF02000F00000C00480010004869
:10545000010000F00100000F0200F000020000F067
:105460000200000F0300F000030000F00300000F33
:1054700003000F0001000F0000080048300400582E
:10548000032913B503D14FF0020C0DF0F9FA0429EA
:10549000F9D010240094FFF797FC02B010BD002350
:1054A0001A46FFF7EDBF0000F7B50D461746044654
:1054B00018B94FF0020C0DF0E3FA0029F9D06E464E
:1054C00030460DF017FC2046FFF724FC264B53F81E
:1054D0003020002AEDD143F8305003EBC0035F6069
:1054E000A388012B2BD0B3F5807F28D010D8102BA8
:1054F00025D007D8042B22D0082B1FD0022B1ED07A
:10550000FFF75AFC402B1AD0802B25D0202BF6E732
:10551000B3F5805F13D008D8B3F5806F0FD0B3F523
:10552000006F1BD0B3F5007FE9E7B3F5804F06D0DD
:10553000B3F5004F15D0B3F5005FE0E708230B4A41
:10554000D2F880100B43C2F8803096E8030003B015
:10555000BDE8F0400DF0F8BB8023F0E74FF40063A6
:10556000EDE74FF40043EAE7780700200008005811
:1055700037B5044618B94FF0020C0DF081FA6D46AC
:1055800028460DF0B7FBA388012B2AD0B3F5807F06
:1055900027D010D8102B24D007D8042B21D0082BCB
:1055A0001FD0022B1DD0FFF707FC402B19D0802BFA
:1055B00017D0202BF6E7B3F5805F12D008D8B3F5EB
:1055C000806F0ED0B3F5006F0BD0B3F5007FE9E725
:1055D000B3F5804F05D0B3F5004F02D0B3F5005FAF
:1055E000E0E7064AD2F880100B43C2F8803095E815
:1055F000030003B0BDE830400DF0A6BB0008005822
:1056000037B5044618B94FF0020C0DF039FA6D4663
:1056100028460DF06FFBA388012B2AD0B3F5807FBD
:1056200027D010D8102B24D007D8042B21D0082B3A
:105630001FD0022B1DD0FFF7BFFB402B19D0802BB2
:1056400017D0202BF6E7B3F5805F12D008D8B3F55A
:10565000806F0ED0B3F5006F0BD0B3F5007FE9E794
:10566000B3F5804F05D0B3F5004F02D0B3F5005F1E
:10567000E0E7074AD2F8801021EA0301C2F880105F
:10568000D36095E8030003B0BDE830400DF05CBB8B
:105690000008005837B5044618B94FF0020C0DF059
:1056A000EFF96D4628460DF025FBA388012B2AD083
:1056B000B3F5807F27D010D8102B24D007D8042B27
:1056C00021D0082B1FD0022B1DD0FFF775FB402BDC
:1056D00019D0802B17D0202BF6E7B3F5805F12D0BE
:1056E00008D8B3F5806F0ED0B3F5006F0BD0B3F5CB
:1056F000007FE9E7B3F5804F05D0B3F5004F02D046
:10570000B3F5005FE0E70C4AD2F8801021EA03010C
:10571000C2F880102046D360FFF7FCFA074B002246
:1057200043F8302003EBC00395E803005A6003B050
:10573000BDE830400DF008BB000800587807002095
:1057400010B50120FFF7DCFA50B1064B0122DA60F8
:10575000054B1A6822B11A685868BDE81040104716
:1057600010BD00BF000800587807002010B50220C7
:10577000FFF7C6FA50B1064B0222DA60054B9A6871
:1057800022B19A68D868BDE81040104710BD00BF2C
:10579000000800587807002010B50420FFF7B0FA81
:1057A00050B1064B0422DA60054B1A6922B11A691E
:1057B0005869BDE81040104710BD00BF00080058F0
:1057C0007807002010B50820FFF79AFA50B1064B71
:1057D0000822DA60054B9A6922B19A69D869BDE856
:1057E0001040104710BD00BF000800587807002087
:1057F00010B51020FFF784FA50B1064B1022DA6082
:10580000054B1A6A22B11A6A586ABDE8104010475F
:1058100010BD00BF000800587807002010B52020F8
:10582000FFF76EFA40B1224B2022DA60214B9A6AD0
:1058300012B19A6AD86A90474020FFF761FA40B1E6
:105840001B4B4022DA601B4B1A6B12B11A6B586B60
:1058500090478020FFF754FA40B1154B8022DA6060
:10586000144B9A6B12B19A6BD86B90474FF48070BF
:10587000FFF746FA48B10E4B4FF48072DA600D4BD9
:105880001A6C12B11A6C586C90474FF40070FFF705
:1058900037FA58B1064B4FF40072DA60054B9A6C38
:1058A00022B19A6CD86CBDE81040104710BD00BF03
:1058B000000800587807002010B54FF48060FFF70B
:1058C0001FFA48B12B4B4FF48062DA602A4B1A6DF5
:1058D00012B11A6D586D90474FF40060FFF710FA3F
:1058E00048B1244B4FF40062DA60234B9A6D12B139
:1058F0009A6DD86D90474FF48050FFF701FA48B188
:105900001C4B4FF48052DA601B4B1A6E12B11A6EA8
:10591000586E90474FF40050FFF7F2F948B1154B1D
:105920004FF40052DA60144B9A6E12B19A6ED86E30
:1059300090474FF48040FFF7E3F948B10D4B4FF427
:105940008042DA600C4B1A6F12B11A6F586F904791
:105950004FF40040FFF7D4F958B1064B4FF4004222
:10596000DA60054B9A6F22B19A6FD86FBDE810408C
:10597000104710BD00080058780700202DE9F04FAF
:1059800089B098469DF84C30DDF848909DF850A0BD
:105990009DF854B00191012B0446174608D0022B04
:1059A00064D0594E594ABBF1000F18BF164607E0A4
:1059B000BBF1000F5CD0554E554A002F18BF16465C
:1059C000DDE9160106AD85E8030095E803000093C4
:1059D000FEF7C8FB002840F09280009B13B9A26933
:1059E0001004F2D4FB020093B9F1FF0F5FFA89F5BE
:1059F00040D8BAF1010F42D0BAF1020F52460CBFA3
:105A00004FF080714FF000714248636840EA565091
:105A100023EA0003DDE900703843304303430B43BE
:105A2000DDE9160104AF87E8030043EA054363603C
:105A30002E464346002E3AD197E8030006AE86E88C
:105A40000300002A14BFC0232023A7691F4023D0CE
:105A50000120E36943F02003E36100284FD0B9EB54
:105A60000509A8444FF00006BED149E00026A7E78B
:105A7000254EA5E70222FF254FF08071C4E752466C
:105A80000021C1E7012028E0084626E089070DD55E
:105A900013F8011BA16229E096E803000293FEF7C8
:105AA00061FB029B0028D0D03846D2E718BB97E8AC
:105AB0000300CDE90232FEF755FBDDE90232002892
:105AC000E0D1A16911F02001DED0A169490604D41A
:105AD000A06980F08000C0F3C010A169BBF1000F85
