:020000042000DA
:100000000000032091A9002029BC002055BC00203D
:1000100065BC0020A9BC002085BD002000000000B8
:10002000000000000000000000000000F12401209A
:1000300095BD0020000000005125012097BD002043
:1000400015A9002015A90020C1BB002015A900207A
:1000500015A9002009BC00203D7F0020697F0020F9
:10006000957F0020C17F0020ED7F0020F1B90020A6
:100070000DBA002029BA002045BA002061BA00203C
:100080007DBA002099BA002015A900209DBD00204E
:100090009BBD002015A9002015A900201980002073
:1000A00015A900209DB90020B9B90020D5B90020BC
:1000B00081B9002015A9002015A9002015A900204C
:1000C00015A9002015A9002015A9002015A90020B8
:1000D000F9BD002019BE002015A9002015A9002097
:1000E000B580002081BB002015A9002015A90020A3
:1000F000A3BD00209FBD0020A1BB0020B9BD0020F2
:10010000D9BD002015A9002015A9002015A900209F
:1001100015A9002015A90020A9BD0020B5BA00200E
:10012000D1BA0020EDBA002009BB002025BB002079
:0C01300041BB002061BB002015A900208D
:100140000348044B834202D0034B03B11847704766
:100150003CD701203CD70120000000000548064B99
:100160001B1AD90F01EBA301491002D0034B03B1B5
:10017000184770473CD701203CD701200000000001
:1001800010B5064C237843B9FFF7DAFF044B13B1DF
:100190000448AFF300800123237010BD64D7012011
:1001A000000000001C8F012008B5044B1BB104495E
:1001B0000448AFF30080BDE80840CFE7000000002E
:1001C00068D701201C8F012053B94AB9002908BF04
:1001D00000281CBF4FF0FF314FF0FF3000F06AB92C
:1001E000ADF1080C6DE904CE00F006F8DDF804E08E
:1001F000DDE9022304B070472DE9F047089D0C4665
:10020000002B4ED194468C458646B2FA82F262D9D2
:100210004AB1C2F12003914020FA03F30CFA02FC28
:10022000194300FA02FE4FEA1C471FFA8CF6B1FB95
:10023000F7F44FEA1E4307FB141143EA014304FBA2
:1002400006F199420AD91CEB030304F1FF3080F058
:100250001281994240F20F81023C6344591A1FFAFD
:100260008EF3B1FBF7F007FB101143EA014300FBEB
:1002700006F69E420AD91CEB030300F1FF3180F021
:10028000FC809E4240F2F980634402389B1B40EAA6
:10029000044000211DB1D3400022C5E90032BDE871
:1002A000F0878B4205D90DB1C5E900010021084650
:1002B000F5E7B3FA83F1002946D1A34202D3904275
:1002C000C0F0F080861A64EB03030120002DE6D015
:1002D000C5E90063E3E7002A40F09080A1EB0C043D
:1002E0004FEA1C481FFA8CF70121B4FBF8F64FEADD
:1002F0001E4308FB164443EA044307FB06F09842FA
:1003000008D91CEB030306F1FF3402D2984200F235
:10031000CD8026461C1A1FFA8EF3B4FBF8F008FBBA
:10032000104443EA044300FB07F79F4208D91CEB43
:10033000030300F1FF3402D29F4200F2B080204656
:10034000DB1B40EA0640A5E7C1F120068B4022FAFC
:1003500006F71F4320FA06FC04FA01F343EA0C03F4
:10036000F44000FA01F8380C4FEA1349B4FBF0FEF0
:100370001FFA87FC00FB1E4449EA04440EFB0CF9FB
:10038000A14502FA01F20AD93C190EF1FF3A80F0B8
:100390008480A14540F28180AEF1020E3C44A4EB82
:1003A00009041FFA83F9B4FBF0F300FB134449EA94
:1003B000044403FB0CFCA44507D93C1903F1FF30AE
:1003C00067D2A44565D9023B3C4443EA0E40A0FBFA
:1003D0000293A4EB0C049C42CE469C4651D34ED0D3
:1003E00055B1B8EB0E0364EB0C0404FA06F6CB40EF
:1003F0001E43CC40C5E90064002150E7C2F1200350
:1004000020FA03F10CFA02FC24FA03F394400C43A3
:100410004FEA1C4800FA02FE1FFA8CF7B3FBF8F013
:1004200008FB1031230C43EA014300FB07F199421A
:1004300008D91CEB030300F1FF362CD299422AD9CC
:10044000023863445B1AA4B2B3FBF8F108FB113322
:1004500044EA034401FB07F3A34208D91CEB04045C
:1004600001F1FF3613D2A34211D902396444E41AD0
:1004700041EA004139E70446F0E6084606E7C84588
:10048000AED2B9EB020E63EB070C0138A8E7314698
:10049000EDE7034699E73046D4E7D6467FE7634465
:1004A00002384DE70646234608460FE7023E6344FE
:1004B00030E700BF704700BF10F8012B11F8013B77
:1004C000012A28BF9A42F7D0D01A7047034613F882
:1004D000012B002AFBD1181A013870472DE9F04F83
:1004E0008BB00C4604939DF854300593049B9DF803
:1004F0005890BDF850700733C3F3CC0306931546EC
:10050000059BB9F1000F09D023B9049B013413FAFC
:1005100084F4A4B247B90BB0BDE8F08F002BF9D03A
:100520007B1E13449DB2F5E790F892A0179BDDF86F
:1005300010800393BAFA8AFB4FEA5B1B2A462146D6
:100540000126B8F1000F10D1179B069A80F892A0EF
:1005500013441793059B002B42D0B9F1000F3CD0F8
:100560000134A4B2013FBFB2D4E7039B1B781E4203
:100570001FD0002380F892A000930123CDE9081238
:10058000079016F07AFFDDE90701099AB9F1000F2B
:1005900020D0013292B2760016F0FF0608BF039B0E
:1005A00008F1FF3802BF0133039301261FFA88F8D0
:1005B000C7E790F89130002BE8D180F892B0009313
:1005C0000123CDE90812079016F057FFDDE9081264
:1005D0000798DBE7013189B2DDE7013DADB2C1E744
:1005E000B9F1000F01D0013CBBE70135F6E708B5D2
:1005F0004FF0020C0CF06EFC08B50EF0F1FC08B1E7
:10060000FFF7F5FF08BD08B54FF0FF310EF0BDFC58
:1006100008B1FFF7ECFF08BD08B508B9FFF7E7FF21
:10062000406B08BD08B508B9FFF7E1FF036890F813
:1006300038201B7C13FB02F0C00008BD2DE9F041FF
:10064000044618B94FF0020C0CF044FC16F05BFAAB
:10065000D4F8B800FFF7D7FF0025D4F8AC309D429E
:1006600015D2D4F8B430204653F8357003EBC508E2
:10067000FFF7D2FF06462046FFF7D4FFD8F8043034
:1006800094F8942001463046B8470135E5E7D4F8A0
:10069000B800BDE8F041FFF7AFBF08B518B94FF09B
:1006A000020C0CF017FCC0F8A030029BC0F8A4307C
:1006B000C0E9261208BD08B518B94FF0020C0CF0BD
:1006C00009FCD0F8A00008BD08B518B94FF0020C1D
:1006D0000CF000FCD0F8A40008BD000008B50346EB
:1006E00018B94FF0020C0CF0F5FB9A6D034B90F922
:1006F0007E009A4208BF013008BD00BFF7C101204B
:1007000008B508B9FFF773FF054B93F845301BB1E7
:10071000BDE8084016F0ECB9BDE8084016F0DDB9B8
:1007200090D6012038B5BC200DF0B8FD04464FF43A
:10073000806015F0E9FCC4F8A80000200EF0F1FB81
:1007400000250E4B0E4A0F49C4F8B800C4E92B55DA
:100750002046C4F8B45016F067FE204684F8945042
:1007600017F03EFA2946204617F043FA2046FFF7D5
:10077000C7FF2046FFF762FF204638BDCD7101203C
:10078000197201207CD3012008B508B9FFF72FFFAB
:10079000074B93F8453023B1012906D0012938BF12
:1007A0000121BDE8084016F0F8BE0021F9E700BFBE
:1007B00090D6012008B508B9FFF719FFBDE8084039
:1007C00016F000BD38B50D46044618B94FF0020CBE
:1007D0000CF080FB012116F038FC104B1B6843B174
:1007E00003EB8503596821B12046BDE8384016F077
:1007F000CFBC042D0ED8DFE805F0030507090B0078
:100800000749F1E70749EFE70749EDE70749EBE754
:100810000749E9E74FF0000CDAE700BF8CE601205A
:10082000A9C50120F7C1012028CB0120CFC9012093
:10083000DBCF012010B5044618B94FF0020C0CF0C4
:1008400049FBFFF75DFF20460121FFF79DFF204692
:100850000121FFF7B7FF20460021BDE81040FFF758
:10086000A9BF2DE97043DDF81C809DF8189006465D
:1008700018B94FF0020C0CF02DFBB8F1000F34D07A
:10088000D0F898400C44D0F89C10012B02EB0105E5
:1008900016D0042B19D0F3B9B9F1030F08D0B9F170
:1008A000040F1BD0B9F1020F15D196F98E301D44FB
:1008B0004346AAB2A1B23046BDE8704316F02CBC44
:1008C000414616F075FC241AE6E7414616F070FC26
:1008D000C0F34F00F7E74FF0000CCCE796F98E30ED
:1008E00003EBD37305EB6305E2E7BDE8708308B55E
:1008F00018B94FF0020C0CF0EDFA19B1BDE8084040
:1009000016F056BC084608BD2DE9F04F85B09CB2E4
:10091000BDF83880DDF83C909DF840A018FA82F6CA
:1009200014FA81F38FB21FFA82FBB6B200969BB223
:100930005A463946054616F045FEC0B1BAF1030FD6
:1009400015D8DFE80AF00207171DCDF80C90002338
:10095000029304E001230293CDF80C900023CDE92B
:1009600000835A46234639462846FFF7B7FD05B0AF
:10097000BDE8F08F00230293CDF80C900123EEE741
:10098000CDF80C900123E3E72DE9F043044687B04E
:1009900018B94FF0020C0CF09DFA002BF9D0D0F8EA
:1009A00098000D18D4F89C1018464FF000095618FE
:1009B000CDF8149017F078FC4946D4F8A880074683
:1009C00000F0A2FE05AA0146404615F0B3FB3846EA
:1009D00000F08AFE8046384600F08EFE059BCDF87A
:1009E0000890CDE900033246434629462046FFF7EA
:1009F0008BFF07B0BDE8F08370B518B94FF0020C5B
:100A00000CF068FAD0F89C50D0F898402A44214461
:100A1000BDF8104004949BB2BDE8704092B289B218
:100A200015F091BF70B5049D18B94FF0020C0CF091
:100A300051FAD0F89C60D0F8984032442144ADB2CD
:100A4000BDF81440059404959BB2BDE8704092B285
:100A500089B215F09ABF70B5049C08B9FFF7C7FDBD
:100A6000D0E926652C4433442A443144A4B204948A
:100A70009BB2BDE8704092B289B216F0BBBD15F0D2
:100A80005FBF000038B50D46044618B94FF0020CA0
:100A90000CF020FA90F894308B4215D0032927D817
:100AA000DFE801F002131A20023B012B12498CBF30
:100AB000002301231BB1D4E92832C4E928232046AE
:100AC00016F06DFF84F8945038BD023B012B0B49A2
:100AD0008CBF00230123EDE7012B09498CBF0023C4
:100AE0000123E7E7012B07498CBF00230123E1E73E
:100AF0004FF0000CCCE700BF7CD3012064D3012071
:100B000058D3012070D301202DE9F84307468846C9
:100B100010460A2116461C4618F066F818B93046E9
:100B2000FFF7D4FC3044851B30460EF0E9FE294621
:100B300081460EF0EBFF48460EF027FF014638468F
:100B4000FFF7D5FEB8F1040F064631D13846FFF75E
:100B5000B2FDB4EB500F29DD3846FFF7ACFD001BAA
:100B60004400B4421CD2341B07EE904A07EE105AE0
:100B7000B8EE670A07EE906AF8EE476AF8EE677A11
:100B800087EEA67A80EE070A18F06AF9FCEEC07AC2
:100B900017EE903A23B1013D052B2CBFED1A053D10
:100BA00048460EF0DAFE2846BDE8F8836400D8E730
:100BB000B8F1000F04D13846FFF77DFD041BD0E7E4
:100BC000B8F1010FCDD04FF0000C0CF083F92DE9F6
:100BD000F0472DED028B0D4684B016461F460446A5
:100BE00018B94FF0020C0CF075F9B5EEC00AF1EE31
:100BF00010FAF6DBF7EE007AB4EEE70AF1EE10FA3F
:100C0000EFD8023B07EE903AF8EE677A039327EEAF
:100C1000800A18F001F905F10108204606F10109E2
:100C20004FF0070A0021B0EE408AFFF7ADFD039BAD
:100C3000CDF800A04A4641462046FFF7DDFE20469B
:100C40000121FFF7A1FD09230322CDE90032294646
:100C50003B4632462046FFF7E5FEFCEEC87ACDF86B
:100C600000A017EE903A4A4641462046FFF7C4FEE0
:100C700004B0BDEC028BBDE8F08700002DE9F04F19
:100C800085B015469DF838B00F9C02919A46804673
:100C900018B94FF0020C0CF01DF9002CF9D0FFF739
:100CA0001DFD2746814600263B7853B9BBF1030F53
:100CB00015D1013E09FB16552378CBB905B0BDE827
:100CC000F08F3A46029B51464046FFF71DFF3A5CC3
:100CD0003B1801360A2A14BF1F465F1CE4E7BBF12C
:100CE000040FE9D1013E09FB06F6A5EB5605E3E743
:100CF000029B224651464046FFF706FF235C05EB68
:100D000009020A2B0646039200D0FBB91748224677
:100D100031460EF015FE07460EF037FE2A460299C0
:100D20005346CDE900B04046FFF79BFD38460EF034
:100D300014FE4046039DFFF7C7FCA842BEDBA25D40
:100D4000A3190A2A14BF1C465C1CB5E74046FFF7EE
:100D5000BBFC039B98422BBF06F1FF3604480548B5
:100D6000224632BF314622463146D2E7AC900120BE
:100D7000B1900120BA90012010B50C464FF0FF321F
:100D80000146E06C0EF00CF820680221BDE810402E
:100D90000FF034B910B50C464FF0FF320146206E0B
:100DA0000DF0FEFF20680421BDE810400FF026B9C9
:100DB00038B5D0E900239A42044615D3082B1946CA
:100DC00038BF0821B3EB410F4FEA410501D309F0C9
:100DD00099FDB5F1804FFAD28068C9000DF062FA32
:100DE0000028F4D0C4E901502368A0685A1C22608E
:100DF00000EB830038BD08B54FF0020C0CF06AF828
:100E000010B504468B0022688068521A013A191DF9
:100E100001449200184417F079FF2368013B2360D6
:100E200010BD00002DE9F04F87B00446102004915A
:100E300007F04EFE014600B10121A06C814FFFF783
:100E400021FE0D23009300228023A06C1146FFF7A2
:100E500024FC97F83930002B00F096800725A06C11
:100E60000021FFF791FC012200951146A06C092397
:100E70000626FFF7C1FD0096A06C3A2303222946FF
:100E8000FFF7BAFD0095A06C202301223D21FFF75A
:100E9000B3FD009626230322A06C5921FFF7ACFD79
:100EA000A06C0121FFF770FCA06C0121FFF7E7FDAA
:100EB0000022654BA06C1146FFF766FDA06C002177
:100EC000FFF7DDFD4FF000094FF07F084D46236B23
:100ED0004B455ED8002D50D00D230093A06C2B1DE8
:100EE0000022C5F17C01FFF7D8FB97F83830002BC2
:100EF00043D00121A06CFFF747FCD4F84890484646
:100F0000FFF7D9FB8046A06CFFF7DEFB012600222D
:100F100043461146CDE900064846FFF783FDD4F865
:100F200048A05046FFF7C7FB8046A06CFFF7C3FB05
:100F30008146A06CFFF7C8FB0238A9F10203A8F1B3
:100F40000201324600905046FFF785FDD4F848A0D4
:100F50005046FFF7B9FB8046A06CFFF7ACFB81461B
:100F6000A06CFFF7B1FB02380090A9F10203A8F1D1
:100F7000020231465046FFF76EFD97F83730002BDE
:100F800059D107B0BDE8F08FA06C0121FFF7FCFB41
:100F900094E72B06A0D4A36B53F829A0504601F088
:100FA0008BFA002844D0504601F045FA061E08BFCF
:100FB0000826A8F102080A23A8EB0608009308F007
:100FC000FF08B31CA06C012208F1FF31FFF765FB9D
:100FD000023597F8383056FA85F5EDB2ABB10021FD
:100FE000A06CFFF7D1FBD4F848B05846FFF763FB7D
:100FF0000390A06CFFF768FB039B00900133002275
:101000004FF0FF315846FFF7F7FCA06C0121FFF7C6
:10101000BBFB97F8381008230093A06CA8EB0101E4
:1010200033460222FFF739FBA16C504601F0DCFA8F
:1010300009F101094BE74FF0000A4FF0020856464C
:1010400054E000BF90D6012090BF0120AB197F2B48
:101050004FDCE36A53F82AB0584601F02DFA002815
:1010600042D0584601F0E7F90A23B0F10009009395
:1010700008BF4FF0080909F10203A06C012208F132
:10108000FF31FFF70AFB97F838309BB10021A06CC5
:10109000FFF77AFBA36C03931846FFF70CFB059050
:1010A000A06CFFF711FB00220090059B03981146EE
:1010B000FFF7A2FCA06C0121FFF766FB0823009359
:1010C0004146A06C4B460222FFF7E7FAA16C584656
:1010D000023608F1020801F087FA59FA86F659FA41
:1010E00088F8F6B25FFA88F80AF1010A636A534594
:1010F000ACD8049B002B39D0424800F0F5FA0A2303
:101100000093C5B2AB1CA06C012208F1FF31FFF7C0
:10111000C4FA97F838309BB10021A06CFFF734FB7C
:10112000D4F848A05046FFF7C6FA8146A06CFFF7F6
:10113000CBFA002200904B4611465046FFF75CFC6C
:10114000A06C0121FFF720FB08230093A06C2B4625
:1011500002224146FFF7A1FA00222A4BA06C114659
:101160000236FFF711FC55FA86F6F6B2002E3FF470
:1011700008AF0D2300930022F31CA06C1146FFF76B
:101180008CFA97F83830002B3FF4FBAEA76C38464A
:10119000FFF791FA0646A06CFFF796FA01250022A8
:1011A00033461146CDE900053846FFF73BFCD4F83D
:1011B00048804046FFF77FFA0646A06CFFF77BFAAF
:1011C0000746A06CFFF780FA0238BB1E2A46B11E04
:1011D00000904046FFF73FFCD4F848804046FFF7B8
:1011E00073FA0646A06CFFF766FA0746A06CFFF795
:1011F0006BFA02380090BB1EB21E29464046FFF72C
:101200002AFCBEE684BF012070B504680546013C97
:101210002B689C4201D3002608E0AB6853F8246099
:10122000304601F049F9013C0028F1D0304670BD4C
:1012300013B504460021806CFFF724FC4023009383
:101240000022A06C80231146FFF727FA04F10C005E
:10125000FFF7DAFF28B1A16C02B0BDE8104001F041
:10126000C3B902B010BD837A1BB9006801210EF02A
:10127000C5BE704708B540684FF0FF310DF085FEE0
:1012800008B1FFF7B8FD08BD08B540680DF0A8FE2D
:1012900008B1FFF7B0FD08BD70B50D46164604460F
:1012A00018B94FF0020C0BF015FE0029F9D0042AF2
:1012B000F7D8084601F0EEF9042E03D0831EDBB206
:1012C000012BEED92046FFF7D5FF0C2006FB0000CE
:1012D0002044FFF76DFD00B105602146284601F06E
:1012E0006DF92046FFF7D0FF2046BDE87040FFF7BC
:1012F000BABF2DE9F0410D46044618B94FF0020C73
:101300000BF0E8FD0029F9D0FFF7B4FF00212846D3
:1013100001F054F904F10C0604F148080027336881
:101320009F4210D30C364645F8D1A36DAB4208BF9F
:101330000023204608BFA365FFF7A6FF2046BDE8AF
:10134000F041FFF790BFB36853F82730AB4204D1A8
:1013500039463046FFF754FDE1E70137DFE708B5CE
:10136000034608B9FFF747FD007A10B1587A80F0BC
:10137000010000F0010008BD10B568200CF08EFFE0
:1013800004460EF0F7FD206000200DF0CAFD234654
:10139000606004F13C0100225A61C3E903220C336E
:1013A0008B42F9D1FFF7BEF90821A06408460DF081
:1013B000BFFCE06411480EF027F8012120650820E9
:1013C0000DF0B6FC20660E480EF01EF82246606650
:1013D0000C49206D0DF04AFE22460B49606E0DF05F
:1013E00045FE0A480EF010F80222C16C2046FFF7B5
:1013F00053FF06480EF02CF8204610BDC190012086
:10140000CE900120790D0020950D0020DB8F01206A
:101410002DE9F04F87B0FFF7AFFF01460446AC4817
:10142000DFF8BC82AB4FDFF8BC920DF0CBFF0021A0
:101430004FF0FF3207200EF04EFE8107064606D51C
:10144000E06C002204A90DF0EAFC002841D07207EC
:1014500009D504F13C05206E002204A90DF0DFFC43
:10146000002800F0D980F307E1D501200EF008FE36
:101470002046FFF7FFFEA37A002B40F00781A06C07
:10148000FFF7D8F92046FFF76AFF0546002800F06D
:10149000E5802046FFF7CCFE04F11800FFF7B4FE0C
:1014A000002840F0D98004F13C00FFF7ADFE011E9A
:1014B00018BF0121884B93F83230002B00F0E380F5
:1014C000B4F85C30002B40F0DE802046FFF7AAFC29
:1014D000D9E09DF815109DF8140094F854304FF0A1
:1014E000010A01290AFA00FA44D123EA0A0384F81E
:1014F00054302046FFF7BEFEA37A13B1A36D002B34
:1015000067D02046FFF72BFF5FFA8AFA6FEA0A0AD4
:10151000002849D004F10C00FFF776FE94F854300F
:1015200013EA0A0F054603D19DF81530002B5ED053
:10153000002D47D1D4F858A09DF81400BAF1000F3F
:1015400057D09DF81530012B53D101F07DF983461A
:101550009DF8150001F094F9049B3946CDE902038A
:10156000CDE9005B052053464A460CF02BFEA06DEA
:1015700004A92CE05FFA8AF219B91A4384F85420BE
:10158000B7E71A42B5D101F05FF905469DF815009D
:1015900001F076F9049B514ACDE9000339462B4608
:1015A00005200CF00FFE4BE704F13C00FFF72CFE8A
:1015B000054690B194F8543013EA0A0F02D19DF811
:1015C000153093B1A36DAB42B4D104A9284601F004
:1015D00083F82046FFF758FE32E704F11800FFF7C2
:1015E00013FE05460028E5D194E7A565EAE7A06566
:1015F0009EE701F029F983469DF8150001F040F9B6
:10160000049BCDE9005BCDE90203424653463946CF
:1016100005200CF0D7FDDCE72046FFF72BFEA37A70
:1016200043B92046FFF79BFE40B104F10C00FFF7E1
:10163000EBFD68B92046FFF727FE0CE72846FFF7C9
:10164000E3FD28B904F11800FFF7DEFD0028ECD017
:1016500004A901F083F8EDE701212BE70146A06C16
:10166000FFF710FA402300932A462946A06C8023F6
:10167000FFF713F804F13C00FFF7C6FD054648B13B
:10168000A16C00F0B1FFA06CFEF7D8FF2046FFF779
:10169000FBFDCCE60146A06CFFF7F4F93323009381
:1016A000A06C80230D222946FEF7F7FF04F11800F5
:1016B000FFF7AAFD38B1A16C00F096FFB4F85C10FA
:1016C0000029E0D101E72046FFF7B2FDF6E700BFB1
:1016D000EA8F0120E38F012090D60120DB900120CA
:1016E000879101201E91012008B518B94FF0020C16
:1016F0000BF0F0FB008808BD08B518B94FF0020CDC
:101700000BF0E8FB408808BD08B503798B4203D88D
:101710004FF0020C0BF0DEFB836853F8210008BD8C
:101720000368806803F18043013B00EB830070474E
:1017300038B5D0E900239A42044615D3082B194640
:1017400038BF0821B3EB410F4FEA410501D309F03F
:10175000D9F8B5F1804FFAD28068C9000CF0A2FD2B
:101760000028F4D0C4E901502368A0685A1C226004
:1017700000EB830038BD38B50D46044618B94FF06C
:10178000020C0BF0A7FBC068053080000CF086FD52
:101790000022C0E90345C0E90022826038BD10B5CF
:1017A000044618B94FF0020C0BF094FB80680CF063
:1017B00077FD2046BDE810400CF072BD08B518B9A1
:1017C0004FF0020C0BF086FBC368DB688B42F7D945
:1017D00000EB8100426108BD13B5044618B94FF013
:1017E000020C0BF077FB00238DF8003003680191A9
:1017F00073B1FFF795FFE36802685B68206953F8EF
:10180000223002AA12E9060002B0BDE810401847D3
:10181000184602B010BD13B5044618B94FF0020CBB
:101820000BF058FB6A4600230093536002238DF8A7
:101830000030036863B1FFF773FFE36801685B681A
:10184000206953F8213006CA02B0BDE8104018479D
:1018500002B010BD70B50D46044618B94FF0020C29
:101860000BF038FBC268D3688B42F7D903683BB1F1
:10187000FFF756FF93680168206953F821309847B5
:101880002046FFF755FF00B10560E36820691B683B
:1018900053F82530BDE87040184738B5044618B9EC
:1018A0004FF0020C0BF016FB03680BB9002038BD9B
:1018B000013B81680360002551F8232041F8235043
:1018C0000368C1682BB98B68006953F822309847C8
:1018D000ECE7FFF725FF8B68056853F82230206995
:1018E0009847E36820691B6853F825309847012022
:1018F000DDE713B5044618B94FF0020C0BF0EAFA15
:101900006A4600230093536001238DF8003003687A
:101910002BB9204602B0BDE81040FFF7BEBFFFF76D
:10192000FFFEE36801685B68206953F8213006CA4E
:1019300098470028EDD002B010BD08B54FF0020C5A
:101940000BF0C8FA08B534200CF0A8FC002202778E
:1019500008BD08B518B94FF0020C0BF0BBFA0160D6
:1019600008BD08B518B94FF0020C0BF0B3FA41608E
:1019700008BD08B518B94FF0020C0BF0ABFA0162C4
:1019800008BD08B518B94FF0020C0BF0A3FA41627C
:1019900008BD08B518B94FF0020C0BF09BFAC162F4
:1019A00008BD38B5044610461CB94FF0020C0BF0C8
:1019B00091FA002AF9D0237B002BF6D1A36A002BE1
:1019C000F3D10129217304D10CF068FC0546A5620E
:1019D00038BD022908D104300CF060FC0546012016
:1019E0000DF09FFA2860F2E79C46E0E710B5044648
:1019F00008B9FFF7A2FF037B5BB1022B03D1836A17
:101A000018680DF0AAFAA06A0CF04AFC0023A36241
:101A1000237310BD10B5044618B94FF0020C0BF03B
:101A200059FAFFF7E3FF2046BDE810400CF038BC40
:101A300010B518B94FF0020C0BF04CFA037B846A16
:101A4000022B08D120684FF0FF310DF09EFA08B14B
:101A5000FFF773FF0434204610BD08B518B94FF0E6
:101A6000020C0BF037FA037B022B06D1836A18684D
:101A70000DF0B6FA08B1FFF760FF08BD70B50D466E
:101A8000044618B94FF0020C0BF024FAFFF7E5FFFB
:101A900035B1236A23B1616A2046BDE8704018471A
:101AA00070BD38B50D46044618B94FF0020C0BF066
:101AB00011FA036853B1FFF7BBFF236801462846BC
:101AC00098472046BDE83840FFF7C7BF38BD0346FA
:101AD00010B508461BB94FF0020C0BF0FBF95A6821
:101AE0001AB1BDE81040D96A1047104610BD034630
:101AF00008461A6B0AB1D96A104710467047034668
:101B000010B508461BB94FF0020C0BF0E3F99A68C8
:101B10001AB1BDE81040D96A1047104610BD10B583
:101B200018B94FF0020C0BF0D5F903691BB1BDE8F1
:101B30001040C06A18476FF0010010BD10B518B909
:101B40004FF0020C0BF0C6F943691BB1BDE8104021
:101B5000C06A184710BD10B518B94FF0020C0BF051
:101B6000B9F983691BB1BDE81040C06A184710BDC0
:101B7000C36881EAC122013B1340426952F8230045
:101B800000B9704743688B4201D108307047006844
:101B9000F6E7436C0BB1C06C184770470346086BFF
:101BA00010B11946FFF77DBF704703688B422DE9DE
:101BB000F04104460D461BD812D24368994222D9FF
:101BC000B1F1804F17D308F09DFEA36853F82600AB
:101BD00043F8267030B901362368B342F5D8256042
:101BE000BDE8F081D0F800800CF05AFB4046F1E7E8
:101BF0000E460027F0E7806889000CF053FB0028B0
:101C0000E1D0C4E90150236800229D42E7D9A168D0
:101C100041F823200133F8E708B54FF0020C0BF030
:101C200059F908B50B464FF0FF32014698680DF0A0
:101C3000B7F808B1FFF7F0FF08BD08B50B464FF045
:101C4000FF320146186D0DF0ABF808B1FFF7E4FF65
:101C5000012008BD08B518B94FF0020C0BF03AF995
:101C600009B9FFF7D9FF0B6B834204D1BDE80840E7
:101C7000486900F07DBC08BD73B5064654200CF0E1
:101C80000DFB044600F097FB22466061224900F0FC
:101C900029FC60692149224600F03CFC224660692B
:101CA0001F4900F04FFC00256069002100F0DAFBBD
:101CB00004F12400C4E90955A561E5621021FFF78C
:101CC00074FF0A232362E5616660082110200DF08D
:101CD0002FF8A0600094134B0146012260680BF0BE
:101CE00017FD012110200DF023F8206500940E4B04
:101CF0000146012260680BF00BFD042110200DF05D
:101D000017F8E06000940146084B606801220BF070
:101D1000FFFC204602B070BD9D1B0020231C00204C
:101D20003B1C0020112300209723002019200020B5
:101D300008B50BF044FCFFF79FFF0123037008BDBB
:101D4000F8B50446006910B16169FFF7D2FAA569D8
:101D500065BB2E46636AE06A9D422BD366620CF037
:101D60009FFA0123C4E90A36606900F030FBD4E928
:101D700001010BF0D9FC216D60680BF0D5FCE16826
:101D800060680BF0D1FCA0680CF0F1FF206D0CF046
:101D9000EEFFE0680CF0EBFF237813B160680BF006
:101DA00037FC2046BDE8F8400CF07ABA4FF0020C40
:101DB0000BF090F850F8253040F825600BB901354C
:101DC000C8E71F6818460CF06BFA3B46F6E708B503
:101DD00018B94FF0020C0BF07DF8016408BD08B58E
:101DE00018B94FF0020C0BF075F8C16308BD08B5C7
:101DF00018B94FF0020C0BF06DF80378002BF8D0F7
:101E0000C0E9111208BD08B518B94FF0020C0BF06B
:101E100061F8C16408BD000037B5044618B94FF039
:101E2000020C0BF057F8816C0378002908BF4FF0C3
:101E3000FF3123B10346124A40680BF0C4FF6068CB
:101E40000BF05CFE012594F838300BB903B030BDBF
:101E50004FF0FF326946A0680CF0E1FF9DF80420C6
:101E60009DF8051094F8383005FA02F219B91343B9
:101E700084F83830E7E70129E5D123EA0203F7E7E0
:101E8000931B002008B508B9FFF7C6FEBDE808405F
:101E900040680BF029BC00002DE9F84F0F461646AC
:101EA000044618B94FF0020C0BF014F8002AF9D0D0
:101EB0001830FFF75DFE0028F4D1206908B1FFF764
:101EC000D9F9D4F82480D4F82CA087EAC72908F1DE
:101ED000FF3309EA03095AF829B05D462DB90C20F1
:101EE0000CF0DCF9B0B908F00DFD6B689F420FD122
:101EF000AE6031493046FFF73CFD30462146FFF7E2
:101F000040FD2069002855D0BDE8F84FFFF7BCB967
:101F10002D68E3E7A369226AC0F800B00133934259
:101F20004AF82900C0E90176A361E2D9B8EB480F6D
:101F30004FEA4807D7D204F124003946FFF735FEAF
:101F40004FEA880084462B4607F1FF3A984509D1AD
:101F5000102F8CBFBF0800270323E761B0FBF3F00D
:101F60002062C6E7E26A52F8235002EB830B1DB9E8
:101F700001330CF1040CE9E762444FF0000E69688C
:101F800081EAC12101EA0A018845A9462D680FD8D6
:101F9000BEF1000F09D1CBF800501168C9F800104C
:101FA000C2F80090002DEAD1E2E7CEF80050F4E745
:101FB000CE46F7E7BDE8F88F551C002038B50D4632
:101FC000044618B94FF0020C0AF084FF0169002999
:101FD000F8D1002DF6D02AB961692846FFF75CF9DF
:101FE000256138BD012AF7D0022A01D10422F3E786
:101FF0008C46E9E770B50446006B0D4610B9E36BFB
:102000002BB970BDFFF77BFD0028F8D0F9E7E06C35
:102010002946BDE87040184713B50C460022E06819
:1020200001A90CF0FCFE08B1FFF7F6FD019920466E
:10203000FFF7E0FF02B010BD07B5019118B94FF0EE
:10204000020C0AF047FFC0684FF0FF3201A90CF004
:10205000A7FE0028F3D103B05DF804FB38B50D46A8
:10206000044618B94FF0020C0AF034FF006B08B1B7
:10207000FFF771FD60692563CDB12B7F104AD55CF8
:1020800000F008FB854206D06069294600F0ECFAB2
:10209000002384F83830206BFFF750FD6069012180
:1020A00000F0E0F96069BDE8384000F061BA294607
:1020B00000F0D8F92046BDE83840FFF7E3BE00BF86
:1020C000909201202DE9F8430D46044618B94FF0CF
:1020D000020C0AF0FFFE006908B1FFF7CBF82946B1
:1020E00004F11800FFF744FD236B0768BB4203D1DE
:1020F00000212046FFF7B2FF636B626AE66ABB42CB
:1021000008BF002302F1FF3208BF636385EAC523DD
:1021100003EA020C002256F82C0028B9D4E9062361
:102120009A42D4D206460FE0D0E900139D4232D144
:102130007ABB46F82C100CF0B3F8A369E269013BB6
:102140009342A36117D20126656A69080B460020F5
:102150009D4223D804F12400FFF727FD0322212DFF
:1021600025F001038CBFD5400025B3FBF2F3E561F8
:102170002362002EABD000213846FFF7FAFB384629
:102180000021FFF7FEFB206900B3BDE8F843FFF72D
:102190007BB81160CFE702460846BEE7D4F82CC0F2
:1021A0005CF823804FEA8309B8F1000F08D05CF88F
:1021B00000200CEB000E32B9CEF800804CF809205C
:1021C00001330430C4E796461268F4E7BDE8F883AB
:1021D00010B50B46044618B94FF0020C0AF07AFE0F
:1021E0004A1C04D10021BDE81040FFF737BF02337D
:1021F00008D01830FFF7BCFC08B9FFF70DFD0168E7
:102200002046F0E710BD00002DE9FF4104460879A3
:1022100094F838300D46012249798240D7B281B90D
:102220003B4384F83830BB43266B41D0D4E90C766D
:10223000002F3AD0BE423ED0002E36D0012934D1F4
:102240000AE0012920D1D4E90C7623EA020384F8BC
:102250003830002FEED146B300F0F6FA80466879A8
:1022600000F00EFB2B68274A2749CDE90203CDE990
:102270000078334605200BF0A5FF606B294604B0BB
:10228000BDE8F041FFF723BC1F42CFD100F0DCFADC
:102290000446687900F0F4FA2B681C4A1A49CDE923
:1022A0000003234605200BF08DFF04B0BDE8F0814C
:1022B0006663002EF9D029463046FFF708FC002857
:1022C000F3D12B79052BF0D16B79023B012BECD8A4
:1022D000206BFFF724FC831C014605D0204604B088
:1022E000BDE8F041FFF774BF236C002BDDD0E06C3C
:1022F00098470028D9D1204604B0BDE8F041FFF747
:10230000C1BD00BF3092012021920120DD9101204A
:1023100013B50C460022A06869460CF080FD08B198
:10232000FFF77AFC69462046FFF76EFF02B010BD4A
:1023300037B50446006B0D4658B1FFF7D8FB40B9DE
:102340002B78142B07D8102B09D8082B05D00D2B70
:102350001FD003B030BD1B2BFBD1052301E0113B87
:10236000DBB2002269462046CDE900228DF8043018
:10237000FFF74AFF0223694620468DF80530FFF734
:1023800043FF0123694620468DF80530FFF73CFFE7
:10239000DFE70423E5E713B50C460022206D01A911
:1023A0000CF03DFD08B1FFF737FC01A92046FFF70F
:1023B000BFFF02B010BD10B524200BF06FFF044624
:1023C000012020810CF0ADFD6060204610BD10B5ED
:1023D000044618B94FF0020C0AF07CFD40684FF03B
:1023E000FF310CF0D2FD0028F4D12368002BF1D18D
:1023F00060680CF0F5FD0028ECD160680CF0ADFDD4
:102400002046BDE810400BF04BBF38B50D460446E2
:1024100018B94FF0020C0AF05DFD40684FF0FF3133
:102420000CF0B3FD0028F4D16068A5720CF0D8FD63
:102430000028EED138BD38B5044618B94FF0020C6B
:102440000AF048FD40684FF0FF310CF09EFD002877
:10245000F4D16068A57A0CF0C3FD0028EED12846BF
:1024600038BD000037B50D46044618B94FF0020CD0
:102470000AF030FD406802210CF087FD38B18F234F
:1024800000930A4A0A4B0B4903200BF09BFE237A68
:10249000AB4204D02068257208B1FEF7E4FE606804
:1024A00003B0BDE830400CF09BBD00BFBA920120E4
:1024B00094920120D592012038B5044618B94FF006
:1024C000020C0AF007FD40684FF0FF310CF05DFD93
:1024D0000028F4D16068257A0CF082FD0028EED146
:1024E000284638BD70B50E461546044618B94FF05B
:1024F000020C0AF0EFFC40684FF0FF310CF045FD94
:102500000028F4D1C4E9036560680CF069FD002877
:10251000EDD170BD70B50E461546044618B94FF0A2
:10252000020C0AF0D7FC40684FF0FF310CF02DFD93
:102530000028F4D1C4E9056560680CF051FD00285D
:10254000EDD170BD70B504460E4640684FF0FF31C6
:1025500015460CF01AFD18B14FF0020C0AF0BAFC47
:10256000C4E9076560680CF03BFD0028F4D170BD3C
:1025700013B5044618B94FF0020C0AF0ABFC4068E2
:1025800002210CF002FD38B1C4230093084A094B24
:10259000094903200BF016FE206818B1237A0BB10D
:1025A000FEF761FE606802B0BDE810400CF018BD97
:1025B000BA92012094920120D592012038B50D469F
:1025C000044618B94FF0020C0AF084FC40684FF042
:1025D000FF310CF0DAFC0028F4D1606825600CF0C3
:1025E000FFFC0028EED138BD73B50E46044618B97D
:1025F0004FF0020C0AF06EFC0029F9D0406802216D
:102600000CF0C3FC38B1D9230093134A134B14497F
:1026100003200BF0D7FD2368002BE9D0E36893B1CA
:10262000637A104A1020D55C06F052FA18B185B1D1
:10263000012D08BF002529463046FEF723FAD4E9CC
:10264000033130469847606802B0BDE870400CF036
:10265000C7BC0125EFE700BFBA9201209492012088
:10266000D5920120DE92012038B50D46044618B9F6
:102670004FF0020C0AF02EFC40684FF0FF310CF0D6
:1026800084FC0028F4D1606865720CF0A9FC002875
:10269000EED138BD37B5044618B94FF0020C0AF038
:1026A00019FC406802210CF070FC40B140F22F137D
:1026B0000093064A064B074903200BF083FD606830
:1026C000657A0CF08DFC284603B030BDBA9201202B
:1026D00094920120D592012070B50D46044618B998
:1026E0004FF0020C0AF0F6FB0029F9D040684FF0D9
:1026F000FF310CF04AFC0028F2D12368002BEFD008
:10270000636903B32046FFF7C5FF03280646E7D8F1
:102710002B79052BE4D82B789B0710D1012807D8FB
:10272000102006F0D5F918B12B790A4AD35C2B7129
:10273000094B2A79062101FB06339B5C2B71D4E9F6
:1027400005312846984760680CF04AFC0028C7D13C
:1027500070BD00BFE2920120E892012037B5044627
:102760000D4640684FF0FF310CF00FFC18B14FF0F0
:10277000020C0AF0AFFB2368002BF8D0E3699BB989
:102780002B78142B0CD8102B14D8082B0AD00D2B17
:102790002AD060680CF024FC0028E8D103B030BDDA
:1027A0001B2BF6D1052307E0216A2846984700280D
:1027B000EFD1E5E7113BDBB2002269462046CDE9C7
:1027C00000228DF80430FFF787FF02236946204678
:1027D0008DF80530FFF780FF0123694620468DF80C
:1027E0000530FFF779FFD4E70423E5E707B59DF847
:1027F000003042696FF301038DF80030009B62F3F3
:102800009F03009303681B798DF80430037C013328
:10281000DBB20374037C022B09D10323C0688DF85B
:10282000053069460CF070FC03B05DF804FB037CD6
:10283000022BF9D9037C013BDBB203740423EDE7DF
:1028400001210DF0DBBB00000A4B0B4A30B51146ED
:102850001C6800239C4201D1084808E01579854294
:1028600002F10C0204D10C2202FB0311886830BD76
:102870000133EFE728A5012084A501200093012062
:1028800004289ABF024B53F820000248704700BF4B
:1028900038930120009301202DE9F04F87B000AF5D
:1028A0000DF068FB80460CF0D4FBF8600CF0D1FB17
:1028B000F9687D4E04467D480CF084FD21467C4835
:1028C0000CF080FD02200BF0E9FCB86000F0FAF893
:1028D000B96878480CF076FD774B1B687B606A46D8
:1028E0004FF0180909FB13239D466C4625464FF00F
:1028F000000A7B6853450FD14FF0010B18260025C5
:10290000A0467D60AA4531D17B68002B00F0C480D1
:1029100001200BF048FBF2E7D6F800B067495846B3
:10292000424605F051FADBF800302E601A69BBF818
:10293000043063481340727909FB0A4B002B18BF1F
:1029400082F001028BF8042002228BF8052001217D
:102950002A460DF0D5FCFB68A8600022EB600AF166
:10296000010A8BF810200C361835C2E7D8F80000A1
:1029700003681A689B8812691342427914BF0121C7
:10298000002106FB054C91429CF8053081EA020EBD
:1029900055D0032B05D89CF805300133DBB28CF8F9
:1029A000053006FB054999F805301BB199F805304B
:1029B000032B6ED999F8043073453CD03B7C89F8E1
:1029C00004E06FF301033B74914203793B753B696B
:1029D0003BD006FB05410BF10102C1F814B0496977
:1029E000D8F808003A6061F39F0396213B610DF02F
:1029F000AFFC3A68934699F80430F86883F0010315
:102A000007F110017B750CF07FFBBB681B7893B15D
:102A1000BB687A7D5B781341DB070CD501200BF096
:102A2000C2FA012007F036FFBB6818780BF0BBFA3A
:102A3000002007F02FFF013508F1180862E7002B8E
:102A4000AFD09CF80530013BA8E706FB0542D8F85B
:102A50000800526962F39F033B610DF097FCD8F8C0
:102A600008000DF0ADFC80B906FB05431B7C012B73
:102A700006D80223F8687B7507F110010CF044FBBF
:102A800006FB054300221A74B5E701200BF08BFA10
:102A9000E5E701237B60CEE779684FF0FF32012044
:102AA0000DF019FB2BE700BF84A50120C190012088
:102AB000CE9001200893012028A501204128002064
:102AC000ED2700201FB5002304460DF10F02144826
:102AD000194613F0AFFDD8B19DF80F20012A0DD192
:102AE0000F480092292303A913F00CFD80B19DF833
:102AF0000C3023700323637004B010BD022A07D189
:102B0000074800922923214613F0FCFC0028F3D14A
:102B1000044A054903200BF055FB00232380E9E715
:102B20004C9301206193012085930120837D23B183
:102B3000037F13B190F822304BB9037D4BB9837EEC
:102B40003BB990F82000003818BF012070470020E2
:102B500070470120704700000846014900F046BB5D
:102B600010940120014900F041BB00BF08940120EE
:102B700038B5074D044628460CF046FC94F93C1045
:102B8000806C14F035FC2846BDE838400CF060BC81
:102B9000EA8F012000238178C3700371407905F02A
:102BA00029BB1FB503780C4683B9CDE901330393E4
:102BB000206803234FF0FF3201A98DF808300CF094
:102BC000EFF818B14FF0020C0AF084F904B010BD10
:102BD000034608461B789B0702D1024900F006BB5A
:102BE000704700BF1094012008B507F07DF828B1A8
:102BF00007F08EF8BDE8084007F09EB808BD0379DD
:102C0000817013B9407905F0F5BA70472DE9F341A9
:102C100005464E1E044600F112074FF0010816F853
:102C2000013F95ED0C7AE07D84F8168007EE903A2E
:102C3000F8EEE77A063467EE877AFCEEE77ACDEDB8
:102C4000017A9DF80410E17305F0D4FABC42E6D194
:102C500002B0BDE8F08100002DE9F04F2DED048BAE
:102C600044208FB00BF01AFB0C21044608200CF016
:102C70005FF8002120602246AF480DF041FB4FF085
:102C80007E536363E362236347F23053A3630123FC
:102C900084F83D300023E3814FF4006263834FF4F6
:102CA0000073A0602282A3834FF080724FF0806394
:102CB000A24823620226626184F828600CF0A4FB1B
:102CC0009F49606022460CF0D1F99E480CF09CFBB5
:102CD00022469D4920640CF0C9F99C49204600F029
:102CE00085FA9B480CF090FB054601F041FA9949A2
:102CF00022460CF0BBF9284601F0BAF9A8B3964A6F
:102D0000964905200BF05EFA002004F10C0807F04C
:102D1000C1FDFFF769FF00214046FFF770FF04F196
:102D20001203184600210393FFF769FF04F118030B
:102D3000184600210493FFF762FF04F11E031846B2
:102D400000210593FFF75BFF854821460CF03AFB15
:102D50004FF0060B20684FF0FF320BA90CF05FF824
:102D600078B14FF0020C0AF0B5F80096162318223D
:102D700004F128017B4813F0C5FB2046FFF7F8FE5D
:102D8000C2E79DF83050032D00F2B481DFE815F062
:102D90000400BA010F0219020B9BD4ED0D8A1E68C4
:102DA000714B94ED0B8A1A889B788DF82A30002796
:102DB000CDE9077794F83D30ADF8282006934FF021
:102DC0000109BA46002E68D1002F00F08F812046FD
:102DD000FFF7ACFE0AA906462046FFF717FF45F0AD
:102DE0000705002E00F08281B9F1000F00F082810A
:102DF00020465E49FFF70AFF64200BF001F96B06DD
:102E000001D505F05BFAEF0702D50398FFF7C2FE84
:102E1000AE0702D50498FFF7BDFE680702D50598F6
:102E2000FFF7B8FE290702D5002007F033FDEA06B8
:102E300001D5FFF7D9FEAB0640F15C81D4ED0B0A5A
:102E4000B0EE480A13F000FA70B9D4ED0B7A9FED9A
:102E5000487A67EE877A0820FCEEE77ACDED067AAD
:102E60009DF8181005F0C6F9D4ED0E7AA568B8EEF5
:102E7000678A0BF095F807EE900ADFED3E6AF8EEF0
:102E8000677A284686EEA77AC8EE077AFCEEE77ADC
:102E900017EE901A0DF05CFA2CE13378122B37D82C
:102EA000DFE813F0CA00DA00F60096009D00A400E7
:102EB000AB00C300BF00F90020006A0086002101BA
:102EC000100115011A0113001D01E37C8DF8283053
:102ED000637E8DF82930E37F8DF82A3045F00705B1
:102EE000012715E03379CBB107EE903AF8EEE77A97
:102EF000012367EE887A607C2374FCEEE77A45F064
:102F00002005CDED097A9DF82410E17305F072F9E2
:102F10000B9B0AF1010A53F82A6053E74046FFF77A
:102F200039FEA0680DF04CFA10B905F0DF05EFE7A7
:102F3000A0680DF02BFAF8E7652B0020C190012066
:102F4000D12B0020CE900120592B0020109401207D
:102F5000DB8F0120A32B002093930120FD8F012004
:102F60000D900120B8930120348F0120F3930120AC
:102F700000007F4300007A4494F82430FF2B3FF494
:102F8000F0AE0133DBB2012B84F82430C0D13379A9
:102F900007EE903AF8EEE77A404667EE887AFCEE64
:102FA000E77ACDED097A9DF82410FFF728FEAFE708
:102FB00094F8243033B1013BDBB284F82430002B89
:102FC000A6D1E4E7844A854902200BF0FBF89FE78D
:102FD00033798DF82830E37445F0010580E73379C3
:102FE0008DF82930637645F0020579E733798DF85D
:102FF0002A30E37745F0040572E7D4ED0C7A9FEDB3
:10300000787AF388B288307A67EE877A45F0470598
:10301000FCEEE77ACDED097A9DF8241005F028F949
:103020005EE7307A05F060F95AE705F0BF0505F074
:1030300045F945F007056BE7307940B1069B43B190
:10304000402005F045FD08B1079B13B1012007F0B2
:1030500021FC45F008055BE7402096ED019AD6ED8E
:10306000029A05F035FD08B1089B43B106F03CFE1D
:1030700040B169EEA80AB0EE490A06F081FE45F0BB
:10308000100545E71E2006F009FE0028F1D1F6E7FD
:10309000FFF7AAFDF3E787B12046FFF747FD30B100
:1030A00020465049FFF7B2FD64200AF0A9FF0AA9A3
:1030B0002046FFF7ABFD45F0070570680AF0A0FF5A
:1030C000002725E70123D6ED018A089320E7337A0C
:1030D0000693012307931BE796ED038A18E7204622
:1030E000FFF746FD14E74FF0000911E7B9F1000FB3
:1030F0007FF485AE0D9800283FF42CAE01210AF034
:103100003FF827E60B9B1B6800251226002BF1D009
:1031100018780A2822D008D80338C0B2022830D93B
:103120000B9B013553F82530F0E71128F8D1122711
:10313000E35D94ED0C7A07EE903AF8EEE77AE01949
:1031400067EE877A0637FCEEE77ACDED067A9DF8D2
:103150001810FFF754FD242FEAD1E1E71B7994ED15
:103160000B7A07EE903AF8EEE77A404667EE877AF8
:10317000FCEEE77ACDED067A9DF81810FFF73FFDDB
:10318000CEE71B790BFB004207EE903A9374F8EE02
:10319000E77A94ED0C7A67EE877A1BFB0060FCEE11
:1031A000E77A2044CDED067A9DF81810E6E7022371
:1031B00000931822162304F128010B4813F030F96C
:1031C00098E7022300931822162304F128010648E9
:1031D00013F098F98EE700BFD4930120FD8F0120F2
:1031E00000007F43F3930120B89301201FB518B965
:1031F0004FF0020C09F06EFE0029F9D00023019176
:1032000000688DF808304FF0FF3201A903930BF0EE
:10321000C7FD0028ECD105B05DF804FB0149FFF7BC
:10322000E5BF00BFE49401200149FFF7DFBF00BF05
:10323000D89401200149FFF7D9BF00BF5C95012058
:103240000149FFF7D3BF00BFF49401200149FFF704
:10325000CDBF00BF2895012013289ABF014B185CF1
:10326000072070470A96012001234B710020704708
:1032700001234B710020704701234B7100207047E0
:1032800001207047012070470120704700207047DF
:1032900038B50C460146204601F00CF9D0E904137C
:1032A000D0E90E529A4208BF8D424FF0000363717D
:1032B000A3600CBF0120184638BD10B50C4601466E
:1032C000204601F0F7F80023D0E90401637110BD36
:1032D00010B50C460146204601F0ECF80023D0E979
:1032E0000E01637110BD10B50C460146204601F079
:1032F000E1F8002112F037FBA060FFF7ADFF60712D
:10330000B0FA80F0400910BD70B50C46C8B0014657
:1033100020461E46154601F0CDF8694612F023FB03
:10332000A060FFF799FF60715DB1DDE90023C5E999
:10333000022300232B709DF80C30DB0644BF0123D1
:103340002B703EB1094ABDF830110DF11A03304619
:1033500002F006FD9DF81A300BB903236371607902
:10336000B0FA80F0400948B070BD00BF07B5012039
:1033700038B50C460146204601F09CF8054612F08F
:10338000E9FAA060FFF768FF607128460AF088FF3D
:103390006079B0FA80F0400938BD70B50C461E4621
:1033A00001462046154601F085F866B12A460023FD
:1033B00012F048F9A060C0B2FFF74EFF6071B0FA9A
:1033C00080F0400970BDD0E90E134A1943F10003A3
:1033D000EEE773B50C460146204615461E4601F041
:1033E00069F80023ADF8063032460DF10603294690
:1033F00012F063F8A060FFF72FFF6071BDF80600C0
:1034000002B070BD70B50C4605460146204601F07D
:1034100051F8064612F00DF9A060FFF71DFF60712C
:1034200030460AF03DFF20462A46002101F036F8DA
:103430006079B0FA80F0400970BDF8B507460846DB
:103440000D46FDF743F8064603300AF027FF7B6878
:103450001B7803703A2304464370721C29460230DD
:1034600015F040FC2046F8BD2DE9F04106469DF8D8
:10347000180003F001049B0748BF44F002048707CB
:103480000D4648BF44F010044107904648BF44F041
:103490003004020748BF44F00404C3064FF414701C
:1034A00048BF44F008040AF0F9FE324607460146D8
:1034B000284600F0F3FF4146B068FFF7BEFF224602
:1034C00001460646384611F08DFFA86030460AF0E6
:1034D000E7FE287AFFF7C0FE6871B0FA80F0400975
:1034E000BDE8F081F8B5054650200C4617460AF0B5
:1034F000D5FE2A4606460146204600F0CFFF394653
:10350000A868FFF79AFF01460546304612F0CDF94C
:10351000A06028460AF0C4FE207AFFF79DFE607185
:10352000B0FA80F04009F8BD70B58068C8B01446A4
:10353000FFF783FF6946064612F03FFA054630461C
:103540000AF0AEFE5CB1DDE90023C4E902230023EA
:1035500023709DF80C30DB0644BF012323702846FE
:1035600048B0BDE87040FFF777BE012070470123E7
:103570004B710020704708B5012283680273002256
:103580005968104611F008FF072008BD2DE9F74FD4
:1035900004460D4605F08EFE424FD4F80880DFF851
:1035A0001491DFF808A106465FFA86FB3EB305F0EA
:1035B00075FE20B33DB138460BF026FFFFF72EFE17
:1035C00038460BF045FF1BF0010F14BF002001200F
:1035D00005F072FEC0B238BBD8E90001012211F03B
:1035E000DBFE10B10D283AD1032020733DB12D48E8
:1035F0000BF00AFFFFF718FE2A480BF029FF2046C0
:1036000000F02EFF267BAEB3204600F01DFF264AB9
:103610002649034602200AF0D5FD002D3AD107269F
:10362000304603B0BDE8F08F052323733DB1384623
:103630000BF0EAFEFFF7F8FD38460BF009FF4FF4F8
:103640007A700AF0DDFC204600F0FEFE3346009062
:103650004A46514602200AF0B5FD013EA4E7022386
:103660002373002DEBD00F480BF0CEFEFFF7DCFDEF
:103670000C48E2E70E4A0D4904200AF0A3FD002D94
:10368000CED008480BF0C0FEFFF7D4FD05480BF084
:10369000DFFEC5E703480BF0B7FEFFF7D7FD0726AF
:1036A000F4E700BF0D900120B4950120A9950120F9
:1036B000C69501209095012070B58668337A04463E
:1036C0000D46DBB105F0EAFDB8B1194A19490420ED
:1036D0000AF078FD0023337229462046FFF756FF93
:1036E00005F0DCFD48B9144A124904200AF06AFDCD
:1036F0002046FFF740FF0123337270BD05F0CEFD79
:103700000028FAD104200D4A0A490AF05BFD012382
:1037100033722046FFF72FFF002DEED008480BF044
:1037200073FEFFF78DFDBDE8704005480BF090BEBD
:10373000D3950120A9950120E1950120FD95012057
:103740000D9001200121FFF7B7BF0120704730B570
:1037500085680C468BB048220021204615F0BAFA45
:103760006868002204F1100112F04CF9054628B9EE
:10377000C4E901004FF002232070E360684605F0C1
:1037800057FFF0B99DF8143084F83230BDF8153089
:10379000A4F833309DF8173084F83530BDF81C306C
:1037A0006387BDF81E30A387089B2364BDF82630CD
:1037B0000698A4F846309DF82430C4F8360084F802
:1037C000443028460BB0BDE83040FFF745BD00004F
:1037D00010B5044603F0FAF80C200AF05FFD094B1F
:1037E0000360094B436001230372084B6360084B7D
:1037F000A060236005F04AFD20460021BDE810408E
:10380000FFF75ABF90D70120C0D9012045370020CB
:1038100020960120037B012B01BF054B1960054B4E
:103820001A6003BF0223037300200920704700BF02
:1038300084D7012080D701200120704710B5037B79
:10384000044663B1022B0CD183680122D3E9000145
:1038500011F0A2FD0D2806D038B9207310BD092043
:10386000FCE70120FAE70420F8E70720F6E710B5A7
:10387000027B044642B983681046596811F08CFDFA
:1038800020B90223237310BD0120FCE70720FAE7CB
:1038900010B5037B04460BB9FFF7E9FF237B022B2E
:1038A00001BF054B00201860044B03BF18600123C3
:1038B0002373012010BD00BF84D7012080D70120D1
:1038C00009289ABF024B53F820000248704700BFF6
:1038D000309701207496012008B518B94FF0020CFA
:1038E00009F0F8FA007800F0010008BD0A7C22B166
:1038F000012A06D0034B002200E0034B1146FDF7DE
:1039000043B8704778BF01206CBF012070B55820C4
:103910000AF0C4FC1021044608200BF009FA2060CC
:103920000BF097FB251D6065284600F084FD04F12F
:103930001C06284600F094FD304600F07CFD304621
:1039400004F1340600F08CFD304600F074FD304682
:1039500000F086FD2846FFF73BFF237C013B18BFA4
:10396000012384F85030FEF726FD0546E06409483F
:10397000FDF7BAFEC1B22846FEF747FDE06C0649E6
:103980002246FEF7AFFDE06C94F85010FEF76AFD9A
:10399000204670BD6CBF0120ED38002073B5044691
:1039A000051D00F14C066B680BB128469847183589
:1039B000B542F8D1257C012D13D194F8503083B154
:1039C0000021E06C84F85010FEF74CFD1849194AAC
:1039D00004200AF0F7FB606D8DF8045001A90BF08C
:1039E00093FB237C13B1023B032B15D894F8503082
:1039F00093B90121E06C84F85010FEF733FD257C6B
:103A000065B90D4A0A4904200AF0DCFB8DF8045020
:103A1000606D01A90BF078FB02B070BD074A044944
:103A200004200AF0CFFB02238DF80430F0E700BF3A
:103A3000788F012058970120689701207697012000
:103A40001FB5FFF763FF0446014609480BF0BAFCB7
:103A500020684FF47A7269460BF0E1F920B96946A3
:103A6000204601F050FAF3E72046FFF797FFEFE713
:103A7000DB8F0120034608461B78033B012B02D84D
:103A8000012109F07DBB704708B54FF0020C09F029
:103A900021FA0000F0B504468DB018B94FF0020CC1
:103AA00009F018FAC568002DF8D009F042FB01278B
:103AB0000023CDE9053307938DF8247004AB0890FB
:103AC0000A93064602AB286804944FF0FF3208A917
:103AD0000B930BF065F905460028DFD10246394605
:103AE0004FF0FF33304609F08AFB304609F032FBD5
:103AF0002368074A074903F160430093062004F155
:103B000060430AF05FFB9DF8080025710DB0F0BD21
:103B10008A9701209E9701202DE9F0410F468AB037
:103B20001646054618B94FF0020C09F0D3F9D0F843
:103B30000C80B8F1000FF6D009F0FBFA0023CDE9B4
:103B4000043304238DF81C30069002AB4FF0FF3293
:103B5000044606A9D8F800008DF81060CDE9025798
:103B60000893CDF824D00BF01BF902460028DAD1D7
:103B70004FF0FF330121204609F041FB204609F0B8
:103B8000E9FA9DF800000AB0BDE8F08170B505467D
:103B90008AB018B94FF0020C09F09CF9C668002EE3
:103BA000F8D009F0C6FA0023CDE9033305930523C5
:103BB0008DF81C30069002AB4FF0FF32044606A988
:103BC000306802950893CDF824D00BF0E9F802464E
:103BD0000028DFD14FF0FF330121204609F00FFB11
:103BE000204609F0B7FADDE900010AB070BD70B5F2
:103BF00005468AB018B94FF0020C09F06BF9C66897
:103C0000002EF8D009F095FA0023CDE9033305938F
:103C100006238DF81C30069002AB4FF0FF320446AD
:103C200006A9306802950893CDF824D00BF0B8F8B7
:103C300002460028DFD14FF0FF330121204609F072
:103C4000DEFA204609F086FA9DF800000AB070BD41
:103C500070B505468AB018B94FF0020C09F03AF970
:103C6000C668002EF8D009F064FA0023CDE90333CA
:103C7000059307238DF81C30069002AB4FF0FF32FE
:103C8000044606A9306802950893CDF824D00BF0BD
:103C900087F802460028DFD14FF0FF33012120468C
:103CA00009F0ADFA204609F055FADDE900010AB045
:103CB00070BD70B505468AB018B94FF0020C09F016
:103CC00009F9C668002EF8D009F033FA0023CDE9CF
:103CD0000333059309238DF81C30069002AB4FF097
:103CE000FF32044606A9306802950893CDF824D027
:103CF0000BF056F802460028DFD14FF0FF330121C8
:103D0000204609F07CFA204609F024FA9DF80000CC
:103D10000AB070BD70B504468CB018B94FF0020CF3
:103D200009F0D8F8C568002DF8D009F002FA002390
:103D3000CDE9053307930B238DF8243004AB0890AD
:103D40000A93064602AB286804944FF0FF3208A994
:103D50000B930BF025F805460028DFD102464FF003
:103D6000FF330121304609F04AFA304609F0F2F9F2
:103D70002368074A074903F160430093062004F1D2
:103D800060430AF01FFA9DF8080025710CB070BD61
:103D9000A99701209E9701202DE9F04388468BB01A
:103DA00017461E46054618B94FF0020C09F092F866
:103DB000D0F80C90B9F1000FF6D009F0BAF90C2345
:103DC0008DF81C30069002AB4FF0FF32044606A976
:103DD000D9F800000497CDE90258ADF814600893B3
:103DE000CDF824D00AF0DCFF02460028DCD14FF0E9
:103DF000FF330121204609F002FA204609F0AAF912
:103E00009DF800000BB0BDE8F083F0B50F468BB015
:103E10001646054618B94FF0020C09F05BF809F098
:103E200088F90023CDE904330446CDE902760CF08D
:103E3000A1F80F2304908DF81C304FF0FF3202AB35
:103E40002868069406A90893CDF824D00AF0A8FFA4
:103E500002460028DFD14FF0FF330121204609F050
:103E6000CEF9204609F076F99DF800000BB0F0BDC0
:103E70001FB508B9FFF708FE6A46FFF7C6FF40B94D
:103E80006846FFF729FD80F00100C0B205B05DF87B
:103E900004FB0020FAE770B50E468AB0054618B953
:103EA0004FF0020C09F016F809F043F90023CDE9B0
:103EB00003330446059302960CF05CF8102303903C
:103EC0008DF81C304FF0FF3202AB2868069406A92B
:103ED0000893CDF824D00AF063FF02460028DFD112
:103EE0004FF0FF330121204609F089F9204609F0FF
:103EF00031F99DF800000AB070BD08B508B9FFF7A8
:103F0000C3FD407908BD2DE9F04F8DB00646009104
:103F1000154632B9FFF7F1FF2C4620460DB0BDE83B
:103F2000F08F18B94FF0020C08F0D4FF00244FF6C0
:103F3000FF7AA1464FF0020BF368002BF2D0A5EBFD
:103F40000408D04528BFD046019309F0F2F8009B41
:103F50008DF824B01A1902AB0B93019B059204AAA9
:103F600008900A9207464FF0FF321868049608A995
:103F7000CDE90699ADF818800AF012FF0246002834
:103F8000D0D14FF0FF330121384609F038F93846D7
:103F900009F0E0F8BDF8087030463C44FFF7ADFF8B
:103FA0000028BAD1B845B8D1A542C5D1B5E72DE9A9
:103FB000F04F8DB016460091054608B9FFF764FD35
:103FC00000244FF6FF7AA1464FF0030BB44206D10E
:103FD0002846FFF792FF20460DB0BDE8F08FEB6852
:103FE0001BB94FF0020C08F075FFA6EB0408D04592
:103FF00028BFD046019309F09CF8009B8DF824B0AF
:104000001A1902AB0B93019B059204AA08900A921D
:1040100007464FF0FF321868049508A9CDE90699C4
:10402000ADF818800AF0BCFE02460028D9D14FF046
:10403000FF330121384609F0E2F8384609F08AF8E2
:10404000BDF8087028463C44FFF757FF0028C2D14E
:10405000B845C0D1A642B9D1BDE708B518B94FF0EF
:10406000020C08F037FFBDE808404079FFF728BC94
:1040700030B505468BB018B94FF0020C08F02AFF96
:1040800009F057F802AB044610220021184614F03C
:1040900021FE16228DF81C2008904FF0FF32286870
:1040A000069406A9CDF824D00AF07AFE024600282C
:1040B000E2D14FF0FF330121204609F0A0F820465D
:1040C00009F048F89DF800000BB030BD38B5054642
:1040D00008B9FFF7D9FC10200AF0E0F800230446E5
:1040E0000371C56000F16043034A044906200AF0E9
:1040F00069F8204638BD00BFBC9701209E9701207B
:1041000008B508B9FFF7C0FC0079003818BF0120D6
:1041100008BD08B508B9FFF7B7FC0079431E58423F
:10412000584108BD10B5044618B94FF0020C08F00C
:10413000D1FEFFF7E5FF30B12046FFF7EAFF70B18F
:104140002046FFF7E7FD04F160430620064A0749D1
:104150000AF038F82046BDE810400AF0A1B8204621
:10416000FFF798FCEFE700BFCE9701209E97012054
:1041700008B508B9FFF788FC406D08BD2DE9F04F80
:104180000F468FB090469B46044618B94FF0020C7C
:1041900008F0A0FE08F0CDFF0546E068FFF7E8FF55
:1041A0002D492A460AF062FF4FF0020902904FF0B3
:1041B000000AE368002BE9D0039308F0BAFFCDE9C9
:1041C000064706468DF820808DF821B00BF0D2FE10
:1041D00006AB0C93039B84F804908DF82CA004AAE2
:1041E00009900D9218680A964FF0FF320AA90AF05A
:1041F000D7FD02460028C9D14FF0FF3301213046D8
:1042000008F0FDFF304608F0A5FF9DF8106056B994
:104210006379092B07D14FF0FF333246012128463D
:1042200008F0EDFFC5E7E068FFF7A2FF02990AF08A
:1042300043FF284608F08EFF01972368074A084984
:1042400003F160430093062004F1604309F0BAFFD4
:1042500030460FB0BDE8F08F753A0020DF9701209F
:104260009E9701202DE9F04F0F468FB0044618B9F4
:104270004FF0020C08F02EFE08F05BFF0546E068E8
:10428000FFF776FF2D492A460AF0F0FE4FF00009AD
:1042900080464FF0010A4FF00A0BE368002BE7D08D
:1042A000039308F046FFCDE908990646CDE9064795
:1042B0000BF060FE039B84F804A006AA8DF82CB0D6
:1042C0000C9204AA08900D9218680A964FF0FF32DB
:1042D0000AA90AF065FD02460028C9D14FF0FF3354
:1042E0000121304608F08BFF304608F033FF9DF87F
:1042F000106056B96379092B07D14FF0FF3332466E
:104300000121284608F07BFFC7E7E068FFF730FF90
:1043100041460AF0D1FE284608F01CFF01972368A9
:10432000074A084903F160430093062004F1604303
:1043300009F048FF30460FB0BDE8F08F753A002015
:10434000F69701209E97012008B508B9FFF79CFB5E
:10435000FFF7A1FD18B1C31E5842584108BD012006
:10436000FCE700002DE9F04F85B01446DDF83880F9
:104370009DF83CA003911F46064618B94FF0020C69
:1043800008F0A8FD1B480BF0DBFA4FF0000B0546C8
:1043900028460BF0FAFA002201463046FFF735FDB9
:1043A0000BF10109A0B11FFA8BF2EAB12046FCF72C
:1043B0008DF8824518D910491FFA8BF322464046E2
:1043C0000BF013FB284605B0BDE8F04F0BF0C5BA63
:1043D0001FFA89F30093039A084901972346284658
:1043E0000BF003FBCB46D3E70549224640460BF0D2
:1043F000FCFAE7E70C9801201E9801201498012090
:1044000007B501200346086900B970474268116882
:104410001A68914201D1043070470068F4E710B582
:104420000023C0E9003304460BF052FAA06010BD2F
:1044300080680BF092BA002301228360027303614B
:104440007047007B70470000037B052B9ABF024A30
:1044500052F82300014870476098012023980120FA
:1044600010B5044604F0DCFC606110BD4069704783
:1044700008B5FFF7C7FF003818BF012008BD38B5E1
:104480000C6905460CB9204638BDE06829460BF09A
:1044900085FA08B12468F5E70120F5E710B50C4668
:1044A0001146FFF7AFFF18B94FF0020C08F012FDEC
:1044B000446010BD08B5FFF7A5FF18B94FF0020C16
:1044C00008F008FD406808BD2DE9F04105461020C0
:1044D0008846174609F0E2FE044608B906F012FACB
:1044E00006463B6946F8043B38613046FFF797FFC4
:1044F000E0682E6065604146BDE8F0410BF04ABAC5
:1045000038B50C6900220CB9204638BD63681D68B7
:1045100003689D42236804D022461C46F3E71360DB
:1045200002E0002AFBD10B61201DFFF781FF20462E
:1045300009F0B6FE0120E8E70369002003B97047DF
:104540001B680130FAE7000038B505460BF01DFA8C
:10455000044628460BF047FA042802D923792F2B6A
:104560001BD111490422204614F061FBA0B10F4970
:104570000422204614F05BFB88B10D49042220463A
:1045800014F055FB68B10B490422204614F04FFB90
:10459000002814BF0420032038BD0420FCE70120BC
:1045A000FAE70220F8E700BF789801207D98012003
:1045B000829801208798012010B50BF0E6F9044697
:1045C000FBF784FF042894BF2018201D10BDF8B508
:1045D00006460C4601F14807002521463046FFF704
:1045E00047FF002818BF25461834BC42F5D128469D
:1045F000F8BD000038B5084D0446294620460BF0AA
:1046000075FA00B938BD20460BF0EDF9411E204681
:104610000BF07CFAF1E700BFA098012038B5044602
:1046200008461546FFF790FF30B904342046FFF7DF
:1046300008FF18B92C6038BD0620FCE70120FAE716
:10464000F7B5144601AA0D46FFF7E8FF68B9019EC9
:1046500033682846DF6BFFF7AFFF224601463B4633
:10466000304603B0BDE8F040184703B0F0BD73B565
:1046700001AA0D46FFF7D2FF78B9019C2046FFF74B
:10468000EFFE236828465E6CFFF796FF334601462F
:10469000204602B0BDE87040184702B070BD2DE959
:1046A000F34115460C4601AA29469DF820801F4675
:1046B000FFF7B4FF607138B9019E28463146FFF715
:1046C000DEFE28B109236371002002B0BDE8F0814D
:1046D000BB0702D53046FFF7C3FE324629462046C7
:1046E000FFF7F2FE2846FFF767FF3368CDF820801A
:1046F0001D6802463B4621463046AC4602B0BDE846
:10470000F0416047F7B50C460746011D2046FFF70C
:104710005EFF054628B9042363710646304603B0A0
:10472000F0BD036821465B68984729460646204647
:10473000FFF7E6FE0323786D8DF8043001A90AF037
:10474000E3FCEBE7F7B515460C4601AA2946FFF74F
:1047500065FF607138B9019E28463146FFF78FFE2C
:1047600020B109236371002003B0F0BD3246294611
:104770002046FFF7A9FE33682846DF6AFFF71CFFD3
:10478000214602463B46304603B0BDE8F04018479C
:10479000F7B50C460746011D2046FFF718FF0546F2
:1047A00028B9042363710646304603B0F0BD0368A0
:1047B00021461B6B9847294606462046FFF7A0FE78
:1047C0000423786D8DF804300DEB03010AF09CFC96
:1047D000EAE72DE9F0410C46011D2046BDF81870AE
:1047E00015461E46FFF7F3FE48B1036806975F6B58
:1047F0002A4633462146BC46BDE8F04160470423C3
:104800006371BDE8F08110B50C46011D2046FFF72D
:10481000DEFE28B1036821469B6BBDE810401847B7
:104820000423637110BD00002DE9F8430D460646D0
:104830003949284690461F460BF047F9814690B308
:1048400036480BF05DF8044640460BF091FC0146FB
:1048500020460BF08CF920460BF097F80522034612
:10486000002128460BF0F9F8BFB30022214630465C
:10487000FFF7E6FE88B32A4920460BF08DF8214663
:104880003046FFF7F4FE274920460BF070F940460A
:104890000BF06EFC014620460BF069F921463046CC
:1048A000FFF7E5FE19E0204928460BF00EF9074610
:1048B000C0B11E480BF024F8044640460BF058FCEB
:1048C000014620460BF053F920460BF05EF8072214
:1048D0000346494628460BF0C0F82046BDE8F84399
:1048E0000BF03BB8124928460BF0EFF888B10422D0
:1048F0003946104B28460BF0B0F80E480BF000F884
:104900003A46044601463046FFF79AFE0028E4D0B6
:10491000C4E7BDE8F88300BF8C980120929801207D
:10492000A2980120A0980120B1980120B9980120F7
:104930007D980120CB9801202DE9FF470B79054692
:104940000C46202B50D8DFE813F02100390040003E
:104950005E007A009200C100E600D700F200050177
:1049600019011F0129012F0151016501DC01EE012F
:104970006C027D02A202B102130294021A02A60086
:104980008F01BC02CA02CF02D402D9028B685868D8
:104990000AF0B6FFA2680146D268064601232846FF
:1049A000FFF742FFD4E902174A7A0B7A00920968AE
:1049B00032462846FFF773FE387012E1D1E902361D
:1049C0001968FFF79FFE30700EE08B68CF68B3F870
:1049D0000890D3E90068011D3046FFF7F8FD014655
:1049E00048B90423737139802068012104B0BDE8FF
:1049F000F04708F0C5BB036831469D6842464B4608
:104A0000A8470146EFE78B68CF68B3F808A0D3E961
:104A10000069011D3046FFF7DAFD054618B9042389
:104A200073713D80E0E7FFF71BFD2B682846D3F844
:104A30000C804A4653463146C0470546F1E78B682D
:104A4000CF6893F80890D3E90068011D3046FFF75E
:104A5000BEFD014618B9042373713970C4E70368B9
:104A600031461D6942464B46A8470146F5E78B682B
:104A7000CE681F68011D3846FFF7A9FD30B9042331
:104A800000207B710146C6E90001ADE703685B6960
:104A900039469847F7E78B68D1F80C80D3F8009037
:104AA000011D4846D3E90267FFF791FD034628B987
:104AB000042289F8052088F8003095E7036832461B
:104AC0009D6A49463B46A8470346F4E78B68CF6892
:104AD0001E68011D3046FFF77AFD054618B904230C
:104AE00073713D7080E7FFF7BBFC2B689B6928461C
:104AF000314698470546F4E78B68CF681E68011D6C
:104B00003046FFF764FD05460028E8D0FFF7A8FC13
:104B10002B681B6AEBE78B68CE681F68011D38465F
:104B2000FFF755FD0028AAD00368DB69B0E78B6862
:104B3000CF681E68011D3046FFF749FD034618B9CE
:104B4000042272713B704FE7036831465B6A9847F5
:104B50000346F7E78B6858680AF0D2FEA26806465B
:104B60000146926828460123FFF75EFED4E902372A
:104B7000324619682846FFF7E5FD1DE7D1E9023600
:104B80001968FFF705FE1EE7D1E902168B8900932D
:104B9000D1E901230968FFF71CFE14E7D1E90236C9
:104BA0001968FFF730FE0EE78B6818680AF0A8FE58
:104BB000A26801469268064600232846FFF734FEA5
:104BC000A368E768D3F80480284603AA3146FFF7B4
:104BD00025FD054620B90398FFF748FCC8F80000FA
:104BE0003D70002E3FF400AF304683E08B681868BC
:104BF0000AF086FEA268064601469268284600230F
:104C0000FFF712FED4E9023731465A682846FFF70B
:104C100017FDD1E68B6818680AF072FEA26801469B
:104C20005268064600232846FFF7FEFD03AA3146D8
:104C30002846E768FFF7F2FC00287FF4BDAE039D2D
:104C400030462946FFF71BFC60B92846FFF708FCF1
:104C50002B683046D3F84080FFF7AEFC014628466B
:104C6000C047A9E60920A7E68B6818680AF048FE45
:104C7000A368064658680AF043FEA2680746926891
:104C8000002331462846FFF7CFFDA2680023926833
:104C900039462846FFF7C8FD3046D4F80C80FFF7A8
:104CA00053FC81463846FFF74FFC814525D103AAC6
:104CB00031462846FFF7B2FCB0B9039D304629467D
:104CC000FFF7DDFBD8B92846FFF7CAFB2B68304653
:104CD000D3F850A0FFF770FC81463846FFF76CFC14
:104CE000494602462846D04788F8000030460AF078
:104CF00034FE38460AF031FE76E60820F4E7092053
:104D0000F2E78B6818680AF0FBFDA26806460146C8
:104D1000526828460123FFF787FD31462846E76899
:104D2000FFF7A5FC48E68B6818680AF0E9FDA26861
:104D30000146D268064600232846FFF775FDA368A2
:104D4000E76803AA31462846D3E90189FFF766FCE4
:104D500000287FF431AE039D2B683046D3F848A07D
:104D6000FFF72AFC4B46014642462846D04723E639
:104D700089680123D1E90012FFF756FD34E68B68FC
:104D800018680AF0BDFDA368064658680AF0B8FD29
:104D900007463046FFF72EFC3846FFF72BFCA2688B
:104DA0000023D26831462846FFF73EFDA268002363
:104DB000D26839462846FFF737FDA3681B7A73B1DE
:104DC0002F2130460AF0FCFD2F2138460AF0F8FD6D
:104DD00030460AF008FE014638460AF097FE304693
:104DE000D4F80C80FFF7B0FB81463846FFF7ACFBE8
:104DF000814514D103AA31462846FFF70FFC70B94C
:104E0000039B1B683046D3F84C900AF0BEFD054664
:104E100038460AF0BAFD01462846C84764E7002034
:104E200062E704352846CF68FFF70BFB01280646EA
:104E300006D02846FEF789FC06462846FFF710FBF9
:104E40003E70D1E504352846CF68FFF7FAFA01280D
:104E50000BD02846FFF770FB064640B92846FEF700
:104E60008AFB2846FFF7FCFA30463870BCE505207F
:104E7000FBE704352846CF68FFF7E3FA012801462F
:104E800003D12846FEF782FBD6E70126D8E78B68D8
:104E9000CE681F6804352846FFF7D3FA01283FF48F
:104EA00092AD39462846FEF752FC8CE50430CE68B8
:104EB000FFF7C7FA00283FF486AD012818BF072086
:104EC00081E58B681E68011D3046FFF780FB314687
:104ED000024605F13400E768FEF79CFCC5E7343074
:104EE000CE68FEF7A9FC6EE53430CE68FEF7A6FC6E
:104EF00069E53430CE68FEF7BAFC64E53430CE683C
:104F0000FEF7C6FC5FE5FFF717BD02780B4612B14E
:104F1000012A04D070470121D868FDF78DB804211B
:104F2000FAE7000038B5114904464068FEF75EF91B
:104F3000D4E90405FFF71CF90D4922460AF096F85A
:104F40000146284600F044FE2069FFF791F818B9A1
:104F5000E0680121FDF770F8E168284600F03CFEAA
:104F6000E0680021BDE83840FDF732B90094012027
:104F70000B4F002013B502AB03E906009DF800308B
:104F8000022B044612D1006A00F070FA48B9E36AB5
:104F90005A1CE262144A934205DD13F06BF903F0E8
:104FA00005FB0023E362002002B010BD002BFAD104
:104FB000019B022B10D8002BF5D0006A00F056FAA6
:104FC00040B9206A00F05AFA0378112B02D0206A07
:104FD00000F049FA0120E7E7032BE4D1006A00F072
:104FE00045FA0028F6D1D8E73689410038B504469D
:104FF0000A494068FEF7FAF82069FFF7B9F8054654
:10500000606900F0E7FD014628460AF055F80022E5
:10501000A0681146BDE83840FCF7D0BBF8930120EA
:1050200070B5054640690E460AF05BFC0446304602
:105030000AF0ABFC0146204611F0B2F920462D6A79
:105040000AF0A3FC01462846FEF712FF054620465B
:105050000AF083FC284670BD08B539B90AF07DFF17
:1050600020B90A2008F0CCFF03F0A0FA08BD000028
:105070002DE9F341044616460D46E1B9E368A670F2
:10508000002B68D10121A76ACDB26570002F00F016
:10509000978023786068112B70D90AF076FC22780B
:1050A000E36A112A94BF002201222946BC4602B0BD
:1050B000BDE8F041604700920B46434A4349042053
:1050C00009F080F8112D28D92378112B78D8404A7F
:1050D0006068A7780021944692F800E09E4515D1BB
:1050E00092F801E0BE4511D892F802E0BE450DD31A
:1050F0000CEBC10CDCF80420364900970AF075FC73
:105100002570E368002BBDD06178BCE70131182918
:1051100002F10802E0D1304AEEE7304B606853F804
:1051200025100AF039FC112D257001D1A670E8E791
:105130000023277A2A4A19461078074218BF507868
:1051400003F1010318BF0918D8B2854202F1020227
:10515000F2D8216192E72178214A206902EB4102CD
:105160005178642211FB06F1B1FBF2F10144514385
:10517000B1FBF3F1914228BF114684E70AF033FCFA
:1051800000F10608404609F089F8074660680AF011
:10519000FCFB009603464146124A384600F0E0FD0B
:1051A0002278112A3846D4E90A6394BF00220122EA
:1051B0002946B047384602B0BDE8F04109F070B862
:1051C00002B0BDE8F08100BF0299012018990120CA
:1051D000A09C012022990120F4980120609D0120CB
:1051E000439901202E99012070B50446406A0E466D
:1051F000FEF786FF10B1606AFEF74CFC60690AF0AA
:1052000070FB054630460AF0C0FB0146284611F007
:10521000C7F82846646A0AF0B8FB012301461A461B
:105220002046FEF7ABFF044628460AF096FB2046D0
:1052300070BD000038B5342009F030F80025058035
:10524000857004460AF044FB606012F0DBFEA0614A
:1052500010480AF0D9F82062FEF738FFC4E90905C2
:1052600003F04CFC84F830000AF032FB2A46234657
:1052700060614FF4A05108480AF0CEFD0749E06193
:1052800005460AF018FE284605490AF0A9FD204601
:1052900038BD00BFDB8F0120369901205950002016
:1052A0005956002010B50446C0690AF07CFEE0693A
:1052B0000AF0FEFC606AFEF723FF10B1606AFEF799
:1052C000E9FB606AFEF72EFFA06912F0CEFE0548EA
:1052D0000AF0BEF860690AF040FB2046BDE81040C5
:1052E00008F0DEBFDB8F01202DE9F84300252A46B8
:1052F0000121C0E903558570457005720446FFF72A
:10530000B7FE0AF0E5FA0D22064629462046FFF7C9
:10531000AFFE05F0B1FA38B94FF0000830460AF098
:105320001CFB4046BDE8F883294620461422FFF7BF
:105330009FFE206A314612F009FF0028ECD030466B
:105340000AF023FB616911F00DF81E222946204660
:10535000FFF78EFE3046A7690AF017FB0146384674
:1053600012F0D8FE80460028D6D0282229462046B2
:10537000FFF77EFE3B68012BCED93222294620461C
:10538000FFF776FE05F06AFA00284BD1D4F81890A2
:10539000D9F818000AF05AFB0028484614BF222505
:1053A000322512F07CFE08B145F00805D9F814004A
:1053B0000AF04CFB08B945F00405D9F82C000AF0B6
:1053C00045FB08B945F04005D9F8B0010AF03EFBAD
:1053D00008B945F08005214B2572002219780D424D
:1053E0001CBF5878E16802F101021CBF0918E16096
:1053F000142A03F10203F1D13C2200212046FFF7D9
:1054000037FE237A5A0714D4502200212046FFF792
:105410002FFE237ADB0613D4642200212046FFF7F7
:1054200027FE7BE7BD6805F019FA85427FF474AF6B
:10543000ACE779692046FFF7F3FD0028E4D16BE77C
:10544000B9692046FFF7ECFD00283FF465AF97F8F7
:105450002530002B3FF460AFDEE700BF4399012009
:10546000C0E90A127047C0690AF044BD08B5C069B6
:105470000AF02EFDC31E5842584108BD704702462F
:1054800008460021FFF7F4BD08B546220721FFF7C3
:10549000EFFD42F2107008F0B3FDDFF808C007F02E
:1054A00019FD00BFB09D012008B501F065FF012086
:1054B00008BD38B5044601F081FE054601F084FEC2
:1054C000A54204D8A04294BF0020012038BD00208E
:1054D000FCE7F8B50C461746064601F06FFE054698
:1054E00001F06FFE3A4600FB0651204613F09FFB89
:1054F000B0FA80F04009F8BD10B5104A10490446D2
:10550000032008F05FFE1E2204212046FFF7B0FDB5
:1055100001F0EEF9022810D0502200212046FFF7BA
:10552000A7FD01F021FA012807D1204664220021BD
:10553000FFF79EFD2046FFF7A7FF10BDBB9D012092
:10554000CA9D01202DE9F04F87B000220821049068
:10555000FFF78EFD049BDFF8FCA09D6902F05CF86C
:105560004FF000090590C8460127642202FB09F2AA
:105570000498C2F307120021FFF77AFD059BD5F8C6
:10558000B04053F839B02E6B0BEA0404A64234D075
:105590002B4A0094CDE9016B4B465146022008F09E
:1055A00011FED5F830217440144024D02C6B8BEAC6
:1055B0000404144084EA0B04224A00944B465146EA
:1055C000032008F0FFFD2146484601F0DBFF80463E
:1055D00038B1059BD5F8B01053F839200A40B242D3
:1055E00009D0CDE90046184A4B465146032008F041
:1055F000E9FD4FF00108002707E0CDE90066134AF6
:105600004B465146052008F0DDFD09F10109B9F1CD
:10561000100F05F10805A8D127B904983A461321BF
:10562000FFF726FDB8F1000F06D0094A094903200B
:1056300008F0C8FD01F08EFF384607B0BDE8F08FD6
:10564000D79D0120109E01202F9E01205F9E0120EA
:10565000899E0120CA9D01202DE9F04F85B00446A6
:10566000FFF742FE002800F01981237AD90676D58B
:1056700020460A220721FFF7FBFC4FF47A7000F066
:10568000D1FF002800F00A8100F0C6FFA369457829
:1056900093F820200778AA421CD1867893F821102D
:1056A000B14217D190F803C093F822108C4511D164
:1056B00090F804C093F823108C450BD190F805C0E6
:1056C00093F824108C4505D1B2B3022F3AD00026AE
:1056D000012504E04DB3022F64D000263546012F8A
:1056E00040F0DC80AC4AAD49032008F06BFD1E227F
:1056F00000212046FFF7BCFC01F036F9012840F0FC
:10570000CD80002D6FD0082003F0E2F90546002877
:105710005DD0082003F0CAF9A14AA049032008F08F
:1057200051FD2046FFF7E8FEB8E0022F3AD0867818
:10573000B6FA86F67609D2E7022F03D0B6FA86F6D5
:105740007609C5E7827A93F825309A422AD1032058
:10575000944A924908F036FD082003F0A7F9237A0D
:105760001A0700F1D680237A5B0700F1D980042064
:1057700003F0BAF9022003F087F9012003F018F9C9
:10578000012003F093F9202003F090F9002003F0AA
:10579000BDF9204664221121FFF76AFC002005B004
:1057A000BDE8F08F804A7D49032008F00BFD0820FA
:1057B00003F06AF9204614220021FFF759FC01206A
:1057C00001F0C0FB002869D02046FFF75DFE774A54
:1057D0007249032008F0F6FC204632222946FFF7E2
:1057E00047FC0220ECE7002E9BD0D4F81890704ABA
:1057F0006A49032008F0E6FC032120462A46FFF709
:1058000037FCD9F818102046FFF7EEFC002845D0E9
:105810006849606A224610F0CFFCD9F828309842D7
:105820003CD1606AFEF76CFC18B94FF0020C07F02F
:1058300051FB01F0C6FC8046606AFEF709FA3A4661
:1058400006462946606AFEF767F9A369D869FFF73B
:1058500030FE18B3A369D8693044FFF72AFEE8B1D7
:105860002A4605212046FFF703FC404608F016FDB6
:105870004FF0640B0746AE420BD908EB05039E427E
:10588000606A34BF721B42463946FEF73CFB8246D3
:1058900060B9384608F004FDAE421FD02046002211
:1058A0001221FFF7E5FB4FF0FF3078E7A369D869D5
:1058B000284401F00FFE0028EBDB1FFA8AF239467C
:1058C000C0B2554401F058FD0BFB05F20021B2FBBC
:1058D000F6F22046D2B2FFF7CBFBCCE70A22062134
:1058E0002046FFF7C5FBD9F81C00002101F01CF889
:1058F0000228D3D0502200212046FFF7B9FB01F047
:1059000033F80128CAD1642200212046FFF7B0FBFA
:105910005AE72046FFF716FE00287FF424AFBDE7C4
:10592000254B0093254B234D01950921204600224C
:10593000CDE90234FFF79CFBA36920465969FFF7C4
:1059400053FC0028AAD0606A2246294612F0B1F919
:105950000028A3D01A49606A12F0B2F9054600285F
:105960009CD000220A212046FFF782FB616A2A466A
:10597000684612F007FA002890D0124B00930022DC
:105980000B212046FFF774FB616A2A46684612F035
:10599000F9F9002882D0EAE6CF9E0120CA9D0120B5
:1059A000E99E0120A49E0120BD9E0120079F0120A9
:1059B0002C9F01207F540020A9540020B3540020C4
:1059C0003A9F0120D354002008B50346486830B1FF
:1059D0009B88B3F5017F04D10221FCF72DFB012048
:1059E00008BD40F205329342F9D10321F5E70000EA
:1059F00073B50D4600210446FAF7E4FEAB79B3B364
:105A00002046364B16220221FAF7BEFF0226344BFF
:105A1000019309220023204600962821FAF721FF4E
:105A200001212046FAF7CEFE286809F0AEFF0423D4
:105A3000CDE900601A2220464B21FBF71FF9294BC4
:105A40002046CDE90063372200231221FAF709FF2F
:105A50002046254B36220721FAF796FF234B3722A3
:105A60004B21204602B0BDE87040FAF78DBF2046BA
:105A70000121FAF7A7FE02261D4B019305220423FC
:105A8000522120460096FAF7ECFE286809F07DFFC7
:105A90000423CDE90060332220464021FAF7E1FEDD
:105AA0002046144B05220421FAF76EFF2046124BC4
:105AB00010223221FAF768FF2B79DFED107A00EE21
:105AC000103AB8EE400A502380EE270A24222A21F9
:105AD000204602B0BDE87040FBF779B8A8BF0120AE
